:100000000C9462000C948A000C948A000C948A0070
:100010000C948A000C948A000C948A000C948A0038
:100020000C948A000C948A000C948A000C94F903B6
:100030000C948A000C948A000C948A000C948A0018
:100040000C9440050C948A000C948C070C94C807FF
:100050000C948A000C948A000C948A000C948A00F8
:100060000C948A000C948A00000000070002010032
:100070000003040600000000000000000102040864
:100080001020408001020408102001020408102002
:10009000040404040404040402020202020203032E
:1000A00003030303000000002300260029000000D2
:1000B0000000250028002B0000000000240027007D
:1000C0002A00830811241FBECFEFD8E0DEBFCDBFCA
:1000D00011E0A0E0B1E0EAE3F5E102C005900D9285
:1000E000AC3CB107D9F712E0ACECB1E001C01D9215
:1000F000A03BB107E1F710E0C4ECD0E004C02297C8
:10010000FE010E948E0AC23CD107C9F70E94D308A3
:100110000C949B0A0C94000040E855E260E070E00B
:1001200089E092E00E94030866E571E089E092E0D0
:100130000E946C068CE00E9491018BE00E94940169
:1001400081E00E949A018AE00E94970180ED97E089
:100150000E9440020E94280361E08DE00E94A804F2
:1001600080910001882319F06CE571E002C061E71D
:1001700071E089E092E00C944D06CF92DF92EF920D
:10018000FF920F931F93CF93DF931F92CDB7DEB7EC
:10019000CDB6DEB68EE189838DB79EB74E970FB68A
:1001A000F8949EBF0FBE8DBF0DB71EB70F5F1F4FD8
:1001B000BE016F5F7F4FC8010E94D703882369F19A
:1001C00061E08DE00E94E00465E871E089E092E082
:1001D0000E944D0678010FC0F80161918F0140E146
:1001E00050E089E092E00E94E90669E871E089E068
:1001F00092E00E944D0698012E193F09898190E0F6
:10020000281739074CF364E871E089E092E00E9416
:100210006C0660E08DE00E94E0040FB6F894DEBE4C
:100220000FBECDBE0F90DF91CF911F910F91FF9028
:10023000EF90DF90CF90089561E08DE00E94E004A0
:1002400065E08BE891E00E9437030E94320360E092
:100250008DE00E94E00461E971E089E092E00E9493
:100260004D066BE871E089E092E00E944D066AE974
:1002700071E089E092E00C946C0680910001882383
:1002800081F00E941C0168EE73E080E090E00E9423
:10029000B4050E94BD0068EB7BE080E090E00C9428
:1002A000B4050C94BD00682780E1689F900111247B
:1002B000622770E0362F2227492F50E0242B352B60
:1002C000CB01F4E095958795FA95E1F72827392732
:1002D000A3E0660F771FAA95E1F726273727C90104
:1002E00008951F93CF93DF93EC01162F2FEF3FEF6D
:1002F00005C06991C9010E9453019C011150C8F7C2
:10030000C901DF91CF911F910895982FEBEAF1E099
:1003100080E02191921721F08F5F8031D1F780E04A
:1003200008958093010108958093020108958093B8
:10033000030108958093CF0108951F93CF93DF9316
:100340009091D001992329F08091D1018F5F809302
:10035000D1012091D2018091D301921759F08035BB
:1003600010F42BE001C02DE1820F8093D301909314
:10037000D20103C08C5E8093D3012091D301203A37
:1003800008F47AC08091D4019091D5019695879513
:100390009093D5018093D4013091D101353028F06C
:1003A00098609093D5018093D401205A2093D30173
:1003B0001092D1018091D601882309F44DC080911B
:1003C000D7018F5F8093D7018C3008F455C0C0915E
:1003D000D401D091D5018C2F8F730E948501182FE5
:1003E000CE01C6E096958795CA95E1F70E948501F2
:1003F00090E1199F90011124822B9091CC019111D1
:100400000EC08093D801982F94509B3140F01092E9
:10041000D6018091D9018F5F8093D9012DC0909131
:10042000CC01E92FF0E0E652FE4F80839F5F90936E
:10043000CC019091CC018091D801981750F0109286
:10044000D6018091F8018F5F8093F80181E080935D
:10045000CD011092D70110C08091D4019091D501A7
:1004600088339B4049F481E08093D6011092D701F4
:100470001092CC011092CD01DF91CF911F91089580
:10048000BF92CF92DF92EF92FF920F931F93CF9381
:10049000DF93CDB7DEB72E970FB6F894DEBF0FBE51
:1004A000CDBFBC018EE0E8E4F1E0DE0111960190E1
:1004B0000D928A95E1F76115710509F498C080E005
:1004C00090E00E9479099B01AC0160E070E080E857
:1004D0009FE30E94E00820E030E040E05EE30E94FD
:1004E000070AE62ED72EC82EB92E8E010D5F1F4F9C
:1004F000FF24F394F801619171918F0180E090E005
:100500000E9479099B01AC0160E074E284E79BE4FE
:100510000E94E0089B01AC0160E070E080E89FE38E
:100520000E94E0089B01AC016E2D7D2D8C2D9B2D32
:100530000E94E0080E944809AB01BC01423051050D
:100540006105710530F04F3FFFEF5F0761057105F1
:1005500050F0F39487E0F812CDCF42305105610599
:10056000710530F444C0E6E0FE1609F440C006C050
:1005700041155105F1E06F077105C8F5FF20B9F18C
:100580001092800088E080938100809181008F2903
:1005900080938100509389004093880080916F0080
:1005A000826080936F0061E0809101010E94A80445
:1005B00060E0809102010E94A80461E08091030143
:1005C0000E94A8046091CF01809103012E960FB67E
:1005D000F894DEBF0FBECDBFDF91CF911F910F9179
:1005E000FF90EF90DF90CF90BF900C94E0042E9698
:1005F0000FB6F894DEBF0FBECDBFDF91CF911F9134
:100600000F91FF90EF90DF90CF90BF900895CF9320
:100610001092F9011092FA011092FB016091CF0142
:10062000C1E06C27809103010E94E004C093CE01D9
:10063000CF9108956091CF01809103010E94E00461
:1006400060E0809101010E94E0041092CE010895C3
:100650008091FC01811105C081E08093FC01109222
:10066000D60108958091CE018111FCCF0895BF92EB
:10067000CF92DF92EF92FF920F931F93CF93DF936E
:10068000C82EF92ED62E2BE1261708F485C0C62FCA
:10069000CD5F0E9432036C2F8FEF9FEF0E945301BA
:1006A000AC2FB0E044E0B595A7954A95E1F7A55584
:1006B000BE4F2C9120930C01CF70EC2FF0E0E5554C
:1006C000FE4F208120930D010CE011E0CC2DDF2D99
:1006D0001AC07E01B9906B2D0E945301AB2DB0E082
:1006E00034E0B595A7953A95E1F7A555BE4F2C9105
:1006F000F8012083D701EC91EF70F0E0E555FE4F53
:100700002081F80121830E5F1F4F2C2F2C192D15EE
:1007100000F36D2D6F5F660F80959095E62FF0E0EA
:10072000E45FFE4FDC0114E0B695A7951A95E1F75A
:10073000AF70BB27A555BE4F2C912083E62FEF5FEE
:10074000F0E0E45FFE4FDC01AF70BB27A555BE4F64
:100750002C912083E62FEE5FF0E0E45FFE4FDC019A
:10076000AB2FBB27A295AF70A555BE4F2C91208310
:10077000A62FAD5FB0E0A45FBE4FE92FFF27EF705B
:10078000FF27E555FE4F80818C93645F6093FD01E8
:100790000E94070381E001C080E0DF91CF911F91AB
:1007A0000F91FF90EF90DF90CF90BF900895FB01E5
:1007B0002091CD012223D1F02091CC012350308112
:1007C000231708F4208340812BED31E050E0B9017C
:1007D0000E94920A1092CD016091CC018AED91E0C5
:1007E0000E94710121E0883B904F09F020E0822FA8
:1007F00008951F920F920FB60F9211242F933F93DB
:100800004F935F936F937F938F939F93AF93BF9318
:10081000EF93FF938091FC01882329F08091CE0112
:10082000882309F449C08091CE018823B1F18091D9
:10083000FB01982F9F5F9093FB01882309F443C02D
:100840002CC00E941A038091FE019091FF01019635
:100850009093FF018093FE0120C02091FA0181E076
:1008600090E0022E01C0880F0A94EAF7F0E0EC5FF6
:10087000FE4F608168232F5F2093FA018091010170
:100880000E94E0048091FA01863038F01092FA015B
:100890008091F9018F5F8093F9018091FB0188308D
:1008A00010F01092FB018091FC018823B1F080913F
:1008B000CE01882381F011C0809102010E941705AA
:1008C0008093D001B0CFE091F9018091FD01E8174C
:1008D00008F0B7CFC2CF0E949D01FF91EF91BF9169
:1008E000AF919F918F917F916F915F914F913F91C8
:1008F0002F910F900FBE0F901F901895833069F0C5
:1009000028F48130A1F0823011F514C08630B1F0A6
:100910008730C1F08430D9F404C0809180008F7793
:1009200003C0809180008F7D80938000089584B5FE
:100930008F7702C084B58F7D84BD08958091B0000B
:100940008F7703C08091B0008F7D8093B0000895B1
:10095000CF93DF9390E0FC01E458FF4F4491FC01FA
:10096000E057FF4F8491882341F190E0880F991F51
:10097000FC01E854FF4F25913491D90182559F4FD6
:10098000FC0185919491C82FD92F9FB7F8948C9131
:10099000611106C0409584238C938881842308C00C
:1009A000623041F4242F209582238C938881842BFC
:1009B000888302C0842B8C939FBFDF91CF910895D1
:1009C0000F931F93CF93DF931F92CDB7DEB7282FDE
:1009D00030E0F901E859FF4F8491F901E458FF4FE5
:1009E0001491F901E057FF4F04910023D1F08823BF
:1009F00021F069830E947E046981E02FF0E0EE0F10
:100A0000FF1FE255FF4F85919491DC019FB7F89449
:100A10008C91611103C01095812301C0812B8C93AF
:100A20009FBF0F90DF91CF911F910F910895CF93AA
:100A3000DF93282F30E0F901E859FF4F8491F90145
:100A4000E458FF4FD491F901E057FF4FC491CC23F4
:100A500089F081110E947E04EC2FF0E0EE0FFF1F61
:100A6000EC55FF4F85919491DC018C918D2321E011
:100A700030E011F420E030E0C901DF91CF9108951A
:100A80001F920F920FB60F9211242F933F938F93C3
:100A90009F93AF93BF938091000290910102A09128
:100AA0000202B091030230910802232F2D5F2D37EF
:100AB00020F40196A11DB11D05C0232F2A570296CF
:100AC000A11DB11D209308028093000290930102A2
:100AD000A0930202B0930302809104029091050258
:100AE000A0910602B09107020196A11DB11D80934D
:100AF000040290930502A0930602B0930702BF91EF
:100B0000AF919F918F913F912F910F900FBE0F90BA
:100B10001F9018950F931F939FB7F89400910402AC
:100B200010910502209106023091070286B5A89B1C
:100B300006C08F3F21F00F5F1F4F2F4F3F4F9FBFCA
:100B4000322F212F102F0027080F111D211D311DBD
:100B500042E0000F111F221F331F4A95D1F7B80141
:100B6000C9011F910F910895CF92DF92EF92FF92EA
:100B7000CF93DF936B017C010E948A05EB010EC0CD
:100B80000E948A056C1B7D0B683E734038F081E043
:100B9000C81AD108E108F108C851DC4FC114D104CA
:100BA000E104F10469F7DF91CF91FF90EF90DF90BE
:100BB000CF900895789484B5826084BD84B58160B7
:100BC00084BD85B5826085BD85B5816085BDEEE655
:100BD000F0E0808181608083E1E8F0E01082808134
:100BE00082608083808181608083E0E8F0E08081A2
:100BF00081608083E1EBF0E0808184608083E0EBC2
:100C0000F0E0808181608083EAE7F0E080818460A9
:100C10008083808182608083808181608083808105
:100C2000806880831092C1000895CF92DF92EF9286
:100C3000FF920F931F93CF93DF936C01EB017A0127
:100C4000E60EF71E00E010E00BC06991D601ED91B1
:100C5000FC910190F081E02DC6010995080F191F44
:100C6000CE15DF0591F7C801DF91CF911F910F914C
:100C7000FF90EF90DF90CF900895DB010D90002062
:100C8000E9F7AD0141505109461B570BDC01ED91CD
:100C9000FC910280F381E02D09940C943D06DC0167
:100CA000ED91FC910190F081E02D09940F931F9339
:100CB000CF93DF93EC016DE00E944F068C016AE058
:100CC000CE010E944F069C01200F311FC901DF9108
:100CD000CF911F910F9108950F931F93CF93DF939F
:100CE000EC010E943D068C01CE010E94560698013F
:100CF000280F391FC901DF91CF911F910F910895DE
:100D00004F925F926F927F929F92AF92BF92CF92DB
:100D1000DF92EF92FF920F931F93CF93DF93CDB7A4
:100D2000DEB7A1970FB6F894DEBF0FBECDBF5C0152
:100D30006A017B01922E19A281E0821710F08AE0ED
:100D4000982E8E010F5D1F4F492C512C612C712C58
:100D5000C701B601A30192010E946A0A8C2D929EDE
:100D600080191124015011098A3014F4805D01C0EA
:100D7000895CF801808369017A01C114D104E1041E
:100D8000F10431F7B801C5010E943D06A1960FB6E6
:100D9000F894DEBF0FBECDBFDF91CF911F910F91B1
:100DA000FF90EF90DF90CF90BF90AF909F907F909B
:100DB0006F905F904F9008952115310541F4DC014B
:100DC000ED91FC910190F081E02D642F09940C9439
:100DD00080069A01462F50E060E070E00C94DC063B
:100DE000FC0184859585FC01E05CFF4F2081318109
:100DF000FC01EE5BFF4F80819181281B390B2F7323
:100E00003327C9010895FC0184859585FC01E05CC8
:100E1000FF4F40815181FC01EE5BFF4F208131810A
:100E20004217530741F00190F081E02DE80FF91FC0
:100E3000208130E002C02FEF3FEFC9010895FC018F
:100E400084859585FC01E05CFF4F40815181FC0168
:100E5000EE5BFF4F208131814217530781F0A08163
:100E6000B181A80FB91F8C91208131812F5F3F4F35
:100E70002F73332731832083282F30E002C02FEFD8
:100E80003FEFC9010895FC0186859785FC01E05C70
:100E9000FF4FDC01AE5BBF4F408151812D913C91F2
:100EA000119742175307C1F70895CF93DF93FC01C1
:100EB00086859785DC01A05CBF4F2D913C911197F1
:100EC0002F5F3F4F2F733327EC01CE5BDF4F4881FD
:100ED000598124173507D9F30D90BC91A02DA80F87
:100EE000B91F6C93A685B785A05CBF4F11963C9344
:100EF0002E93A689B7892C9181E090E0058C02C0E1
:100F0000880F991F0A94E2F7282B2C9381E090E038
:100F1000DF91CF91089508951F920F920FB60F920F
:100F200011242F933F934F938F939F93EF93FF93AE
:100F30004091C6008091AC029091AD0201968F73F2
:100F400099272091AE023091AF028217930759F092
:100F5000E091AC02F091AD02E459FD4F40839093D3
:100F6000AD028093AC02FF91EF919F918F914F91D1
:100F70003F912F910F900FBE0F901F90189589E011
:100F800092E00E94F006892B11F00C948B070895D3
:100F90001F920F920FB60F9211242F933F938F93AE
:100FA0009F93EF93FF9320916802309169028091A3
:100FB0006A0290916B022817390731F48091C100C1
:100FC0008F7D8093C10014C0E0916A02F0916B02A2
:100FD000E85DFD4F208180916A0290916B0201963D
:100FE0008F73992790936B0280936A022093C600B7
:100FF000FF91EF919F918F913F912F910F900FBE95
:101000000F901F901895CF92DF92EF92FF92CF939F
:10101000DF93EC016A017B01411581EE5807610500
:101020007105F9F0EC89FD8981E090E00E8C02C039
:10103000880F991F0A94E2F7808360E079E08DE3DE
:1010400090E0A70196010E946A0A215031094109E6
:1010500051095695479537952795211580E1380711
:1010600098F0EC89FD89108260E874E88EE190E0E8
:10107000A70196010E946A0A2150310941095109CC
:101080005695479537952795E889F9893083EA89F8
:10109000FB892083EE89FF89408181E090E09C01FB
:1010A0000A8C02C0220F331F0A94E2F7422B4083BE
:1010B000EE89FF8940819C010B8C02C0220F331FF7
:1010C0000A94E2F7422B4083EE89FF8940819C011C
:1010D0000C8C02C0220F331F0A94E2F7422B40838C
:1010E000EE89FF8920810D8C02C0880F991F0A9418
:1010F000E2F7809582238083DF91CF91FF90EF907C
:10110000DF90CF90089510920C0210920B0288EE9F
:1011100093E0A0E0B0E080930D0290930E02A093C4
:101120000F02B09310028FEB91E090930A0280932C
:1011300009028CE692E0909316028093150288E2F1
:1011400092E0909318028093170285EC90E09093C0
:101150001A028093190284EC90E090931C02809311
:101160001B0280EC90E090931E0280931D0281ECA4
:1011700090E09093200280931F0286EC90E0909381
:1011800022028093210284E08093230283E08093F3
:10119000240287E08093250285E08093260281E087
:1011A0008093270208950E94DA050E948C00CFEBFD
:1011B000D7E00E943D012097E1F30E94BF07F9CFDD
:1011C0000CD0EBC0E3D040F0DAD030F021F45F3F38
:1011D00019F0CCC0511115C1CFC0F0D098F39923AC
:1011E000C9F35523B1F3951B550BBB27AA276217EB
:1011F0007307840738F09F5F5F4F220F331F441F30
:10120000AA1FA9F333D00E2E3AF0E0E830D0915067
:101210005040E695001CCAF729D0FE2F27D0660F54
:10122000771F881FBB1F261737074807AB07B0E893
:1012300009F0BB0B802DBF01FF2793585F4F2AF0A9
:101240009E3F510568F092C0DCC05F3FECF3983ED2
:10125000DCF3869577956795B795F7959F5FC9F706
:10126000880F911D9695879597F90895E1E0660F8F
:10127000771F881FBB1F621773078407BA0720F008
:10128000621B730B840BBA0BEE1F88F7E095089571
:1012900004D06894B111B5C0089598D088F09F57D4
:1012A00090F0B92F9927B751A0F0D1F0660F771FB2
:1012B000881F991F1AF0BA95C9F712C0B13081F092
:1012C0009FD0B1E008959CC0672F782F8827B85F22
:1012D00039F0B93FCCF3869577956795B395D9F7F3
:1012E0003EF490958095709561957F4F8F4F9F4FFD
:1012F0000895E89409C097FB3EF490958095709509
:1013000061957F4F8F4F9F4F9923A9F0F92F96E951
:10131000BB279395F695879577956795B795F111C6
:10132000F8CFFAF4BB0F11F460FF1BC06F5F7F4F63
:101330008F4F9F4F16C0882311F096E911C0772375
:1013400021F09EE8872F762F05C0662371F096E87E
:10135000862F70E060E02AF09A95660F771F881F4D
:10136000DAF7880F9695879597F9089597F99F670B
:1013700080E870E060E008959FEF80EC089500241D
:101380000A941616170618060906089500240A94EA
:1013900012161306140605060895092E0394000C70
:1013A00011F4882352F0BB0F40F4BF2B11F460FFFF
:1013B00004C06F5F7F4F8F4F9F4F089557FD905828
:1013C000440F551F59F05F3F71F04795880F97FB09
:1013D000991F61F09F3F79F08795089512161306C3
:1013E0001406551FF2CF4695F1DF08C016161706F2
:1013F0001806991FF1CF8695710561050894089527
:10140000E894BB2766277727CB0197F908950BD07F
:10141000C4CFB5DF28F0BADF18F0952309F0A6CFC6
:10142000ABCF1124EECFCADFA0F3959FD1F3950F78
:1014300050E0551F629FF001729FBB27F00DB11D58
:10144000639FAA27F00DB11DAA1F649F6627B00DE8
:10145000A11D661F829F2227B00DA11D621F739FD1
:10146000B00DA11D621F839FA00D611D221F749FDF
:101470003327A00D611D231F849F600D211D822F26
:10148000762F6A2F11249F5750408AF0E1F088236D
:101490004AF0EE0FFF1FBB1F661F771F881F91507A
:1014A0005040A9F79E3F510570F060CFAACF5F3F33
:1014B000ECF3983EDCF3869577956795B795F795AD
:1014C000E7959F5FC1F7FE2B880F911D9695879535
:1014D00097F90895A1E21A2EAA1BBB1BFD010DC0AE
:1014E000AA1FBB1FEE1FFF1FA217B307E407F507D4
:1014F00020F0A21BB30BE40BF50B661F771F881FB0
:10150000991F1A9469F760957095809590959B0145
:10151000AC01BD01CF010895EE0FFF1F0590F491BE
:10152000E02D0994FB01DC0102C001900D924150B5
:0A1530005040D8F70895F894FFCF5B
:10153A00010C0B0A2A2A2A2A2A2A382C000000001F
:10154A000000000000000000000000000000000091
:10155A000000000000000000000000000000000081
:10156A000000000000000000000000000000000071
:10157A000000000000000000000001000800400018
:10158A0000010004050D7365747570004920616DD2
:10159A00203433334D487A204D41535445520D0A75
:1015AA00004920616D203433334D487A20534C4131
:1015BA0056450D0A00476F743A200068656C6C6FD7
:1015CA0000537472696E67202700272068617320B0
:1015DA006265656E2073656E742E000D0E13151606
:1015EA00191A1C232526292A2C32340000000055FA
:0C15FA00071506F0061F07030743070053
:00000001FF
