:100000000C9462000C948A000C948A000C948A0070
:100010000C948A000C948A000C948A000C948A0038
:100020000C948A000C948A000C948A000C94470467
:100030000C948A000C948A000C948A000C948A0018
:100040000C948E050C948A000C946A070C94A607F5
:100050000C948A000C948A000C948A000C948A00F8
:100060000C948A000C948A00000000070002010032
:100070000003040600000000000000000102040864
:100080001020408001020408102001020408102002
:10009000040404040404040402020202020203032E
:1000A00003030303000000002300260029000000D2
:1000B0000000250028002B0000000000240027007D
:1000C0002A00610811241FBECFEFD8E0DEBFCDBFEC
:1000D00011E0A0E0B1E0E6EFF4E102C005900D927E
:1000E000AA3CB107D9F712E0AAECB1E001C01D9219
:1000F000A13BB107E1F710E0C4ECD0E004C02297C7
:10010000FE010E946C0AC23CD107C9F70E94B108E7
:100110000C94790A0C94000040E855E260E070E02D
:100120008AE092E00E94E10767E571E08AE092E0F0
:100130000E94BA0685E00E94E50186E00E94E8017F
:1001400080ED97E00E948E020E94760361E08DE0D0
:100150000E94F6048091CB01882319F06DE571E0CF
:1001600002C062E771E08AE092E00C949B06CF93B4
:10017000DF93CDB7DEB7C95CD1090FB6F894DEBF07
:100180000FBECDBF88ECC753DF4F8883C95CD0401A
:10019000BE0167537F4FCE0101960E94250488233C
:1001A000C9F061E08DE00E942E0566E871E08AE00A
:1001B00092E00E949B0643E851E0C753DF4F6881FD
:1001C000C95CD040CE0101960E94720160E08DE0D2
:1001D0000E942E05C753DF4F0FB6F894DEBF0FBE47
:1001E000CDBFDF91CF910895CF93DF93CDB7DEB729
:1001F000C85CD1090FB6F894DEBF0FBECDBF8091A9
:10020000CA018F5F8093CA01898382E08A8388E66E
:100210008B8385E68C838CE68D838E838FE68F833C
:10022000188661E08DE00E942E0567E0CE01019600
:100230000E9485030E94800360E08DE00E942E05ED
:100240006CE871E08AE092E00E949B0643E851E08E
:1002500067E0CE0101960E947201C853DF4F0FB6CE
:10026000F894DEBF0FBECDBFDF91CF91089580918E
:10027000CB01882379F00E94F40068EE73E080E0FF
:1002800090E00E9402060E94B70068EB7BE080E0ED
:1002900090E00AC00E94B7008091CC01813031F417
:1002A00068EE73E080E090E00C9402060895CF932E
:1002B000DF93EB0142E0682F70E0809100019091A4
:1002C00001010E94910160910001709101018AE099
:1002D00092E00E949B06BE018AE092E0DF91CF91FE
:1002E0000C949B06EF92FF920F931F93CF93DF9393
:1002F000F82EE62E8A01EC0105C061E971E08991D2
:100300000E9457018C2F8F198E15B8F3B8018AE01F
:1003100092E0DF91CF911F910F91FF90EF900C949D
:100320009B06DC01A40FB11D47FDBA951C924150FC
:10033000FB01EF70FF27E756FE4F80818E9384E02C
:10034000769567958A95E1F74111F1CF0895682771
:1003500080E1689F90011124622770E0362F2227E8
:10036000492F50E0242B352BCB01F4E09595879550
:10037000FA95E1F728273927A3E0660F771FAA959A
:10038000E1F726273727C90108951F93CF93DF93FD
:10039000EC01162F2FEF3FEF05C06991C9010E94B4
:1003A000A7019C011150C8F7C901DF91CF911F919E
:1003B0000895982FEAEAF1E080E02191921721F068
:1003C0008F5F8031D1F780E0089580930201089516
:1003D0008093030108951F93CF93DF939091D101F0
:1003E000992329F08091D2018F5F8093D2012091CF
:1003F000D3018091D401921759F0803510F42BE08D
:1004000001C02DE1820F8093D4019093D30103C0EA
:100410008C5E8093D4012091D401203A08F47AC0F4
:100420008091D5019091D601969587959093D601AC
:100430008093D5013091D201353028F098609093A7
:10044000D6018093D501205A2093D4011092D20175
:100450008091D701882309F44DC08091D8018F5F26
:100460008093D8018C3008F455C0C091D501D0914B
:10047000D6018C2F8F730E94D901182FCE01C6E0B0
:1004800096958795CA95E1F70E94D90190E1199F49
:1004900090011124822B9091CD0191110EC0809377
:1004A000D901982F94509B3140F01092D701809140
:1004B000DA018F5F8093DA012DC09091CD01E92F91
:1004C000F0E0E552FE4F80839F5F9093CD019091C5
:1004D000CD018091D901981750F01092D7018091E9
:1004E000F9018F5F8093F90181E08093CE01109232
:1004F000D80110C08091D5019091D60188339B40DE
:1005000049F481E08093D7011092D8011092CD0177
:100510001092CE01DF91CF911F910895BF92CF929B
:10052000DF92EF92FF920F931F93CF93DF93CDB79C
:10053000DEB72E970FB6F894DEBF0FBECDBFBC015D
:100540008EE0E9E4F1E0DE01119601900D928A95CA
:10055000E1F76115710509F498C080E090E00E9410
:1005600057099B01AC0160E070E080E89FE30E94C6
:10057000BE0820E030E040E05EE30E94E509E62EA0
:10058000D72EC82EB92E8E010D5F1F4FFF24F39476
:10059000F801619171918F0180E090E00E9457090C
:1005A0009B01AC0160E074E284E79BE40E94BE081A
:1005B0009B01AC0160E070E080E89FE30E94BE0810
:1005C0009B01AC016E2D7D2D8C2D9B2D0E94BE08B4
:1005D0000E942609AB01BC0142305105610571053D
:1005E00030F04F3FFFEF5F076105710550F0F39466
:1005F00087E0F812CDCF423051056105710530F426
:1006000044C0E6E0FE1609F440C006C0411551059D
:10061000F1E06F077105C8F5FF20B9F11092800075
:1006200088E080938100809181008F2980938100F0
:10063000509389004093880080916F00826080937E
:100640006F0061E0809102010E94F60460E08091F9
:1006500003010E94F60461E0809104010E94F60407
:100660006091D001809104012E960FB6F894DEBF00
:100670000FBECDBFDF91CF911F910F91FF90EF90F3
:10068000DF90CF90BF900C942E052E960FB6F89465
:10069000DEBF0FBECDBFDF91CF911F910F91FF90B5
:1006A000EF90DF90CF90BF900895CF931092FA0112
:1006B0001092FB011092FC016091D001C1E06C2707
:1006C000809104010E942E05C093CF01CF9108951F
:1006D0006091D001809104010E942E0560E080911C
:1006E00002010E942E051092CF0108958091FD0114
:1006F000811105C081E08093FD011092D70108951A
:100700008091CF018111FCCF0895BF92CF92DF92EB
:10071000EF92FF920F931F93CF93DF93C82EF92E82
:10072000D62E2BE1261708F485C0C62FCD5F0E9478
:1007300080036C2F8FEF9FEF0E94A701AC2FB0E0DA
:1007400044E0B595A7954A95E1F7A655BE4F2C9183
:1007500020930D01CF70EC2FF0E0E655FE4F208185
:1007600020930E010DE011E0CC2DDF2D1AC07E018B
:10077000B9906B2D0E94A701AB2DB0E034E0B59588
:10078000A7953A95E1F7A655BE4F2C91F801208325
:10079000D701EC91EF70F0E0E655FE4F2081F801B3
:1007A00021830E5F1F4F2C2F2C192D1500F36D2D5B
:1007B0006F5F660F80959095E62FF0E0E35FFE4F48
:1007C000DC0114E0B695A7951A95E1F7AF70BB2749
:1007D000A655BE4F2C912083E62FEF5FF0E0E35F3C
:1007E000FE4FDC01AF70BB27A655BE4F2C91208376
:1007F000E62FEE5FF0E0E35FFE4FDC01AB2FBB279F
:10080000A295AF70A655BE4F2C912083A62FAD5F49
:10081000B0E0A35FBE4FE92FFF27EF70FF27E6553B
:10082000FE4F80818C93645F6093FE010E945503AC
:1008300081E001C080E0DF91CF911F910F91FF9087
:10084000EF90DF90CF90BF900895FB012091CE01F3
:100850002223D1F02091CD0123503081231708F4B9
:10086000208340812CED31E050E0B9010E94700AF4
:100870001092CE016091CD018BED91E00E94C501F7
:1008800021E0883B904F09F020E0822F08951F92CD
:100890000F920FB60F9211242F933F934F935F93B4
:1008A0006F937F938F939F93AF93BF93EF93FF9338
:1008B0008091FD01882329F08091CF01882309F4DC
:1008C00049C08091CF018823B1F18091FC01982F1C
:1008D0009F5F9093FC01882309F443C02CC00E94C1
:1008E00068038091FF0190910002019690930002AD
:1008F0008093FF0120C02091FB0181E090E0022E57
:1009000001C0880F0A94EAF7F0E0EB5FFE4F6081C8
:1009100068232F5F2093FB01809102010E942E0526
:100920008091FB01863038F01092FB018091FA0132
:100930008F5F8093FA018091FC01883010F0109253
:10094000FC018091FD018823B1F08091CF018823C3
:1009500081F011C0809103010E9465058093D1014F
:10096000B0CFE091FA018091FE01E81708F0B7CF0F
:10097000C2CF0E94EB01FF91EF91BF91AF919F9188
:100980008F917F916F915F914F913F912F910F9038
:100990000FBE0F901F901895833069F028F48130B6
:1009A000A1F0823011F514C08630B1F08730C1F06B
:1009B0008430D9F404C0809180008F7703C0809187
:1009C00080008F7D80938000089584B58F7702C06A
:1009D00084B58F7D84BD08958091B0008F7703C06A
:1009E0008091B0008F7D8093B0000895CF93DF9306
:1009F00090E0FC01E458FF4F4491FC01E057FF4FA9
:100A00008491882341F190E0880F991FFC01E854FC
:100A1000FF4F25913491D90182559F4FFC0185915B
:100A20009491C82FD92F9FB7F8948C91611106C06B
:100A3000409584238C938881842308C0623041F4DC
:100A4000242F209582238C938881842B888302C055
:100A5000842B8C939FBFDF91CF9108950F931F93A9
:100A6000CF93DF931F92CDB7DEB7282F30E0F90187
:100A7000E859FF4F8491F901E458FF4F1491F901AF
:100A8000E057FF4F04910023D1F0882321F06983C0
:100A90000E94CC046981E02FF0E0EE0FFF1FE255C9
:100AA000FF4F85919491DC019FB7F8948C9161116F
:100AB00003C01095812301C0812B8C939FBF0F90A1
:100AC000DF91CF911F910F910895CF93DF93282F3E
:100AD00030E0F901E859FF4F8491F901E458FF4FE4
:100AE000D491F901E057FF4FC491CC2389F08111D3
:100AF0000E94CC04EC2FF0E0EE0FFF1FEC55FF4FEF
:100B000085919491DC018C918D2321E030E011F4EA
:100B100020E030E0C901DF91CF9108951F920F923C
:100B20000FB60F9211242F933F938F939F93AF9300
:100B3000BF938091010290910202A0910302B091B3
:100B4000040230910902232F2D5F2D3720F40196E6
:100B5000A11DB11D05C0232F2A570296A11DB11D4D
:100B6000209309028093010290930202A093030252
:100B7000B09304028091050290910602A0910702B1
:100B8000B09108020196A11DB11D809305029093BA
:100B90000602A0930702B0930802BF91AF919F9104
:100BA0008F913F912F910F900FBE0F901F9018952E
:100BB0000F931F939FB7F8940091050210910602BE
:100BC000209107023091080286B5A89B06C08F3F8E
:100BD00021F00F5F1F4F2F4F3F4F9FBF322F212F0D
:100BE000102F0027080F111D211D311D42E0000F9D
:100BF000111F221F331F4A95D1F7B801C9011F9158
:100C00000F910895CF92DF92EF92FF92CF93DF93EF
:100C10006B017C010E94D805EB010EC00E94D80533
:100C20006C1B7D0B683E734038F081E0C81AD10818
:100C3000E108F108C851DC4FC114D104E104F1040A
:100C400069F7DF91CF91FF90EF90DF90CF900895FB
:100C5000789484B5826084BD84B5816084BD85B597
:100C6000826085BD85B5816085BDEEE6F0E080815E
:100C700081608083E1E8F0E010828081826080837F
:100C8000808181608083E0E8F0E080818160808302
:100C9000E1EBF0E0808184608083E0EBF0E0808134
:100CA00081608083EAE7F0E08081846080838081D6
:100CB000826080838081816080838081806880837E
:100CC0001092C1000895CF92DF92EF92FF920F939E
:100CD0001F93CF93DF936C01EB017A01E60EF71EB1
:100CE00000E010E00BC06991D601ED91FC910190FC
:100CF000F081E02DC6010995080F191FCE15DF05FB
:100D000091F7C801DF91CF911F910F91FF90EF9064
:100D1000DF90CF900895DB010D900020E9F7AD0141
:100D200041505109461B570BDC01ED91FC910280AB
:100D3000F381E02D09940C948B06DC01ED91FC917C
:100D40000190F081E02D09940F931F93CF93DF93CF
:100D5000EC016DE00E949D068C016AE0CE010E94CC
:100D60009D069C01200F311FC901DF91CF911F917A
:100D70000F9108950F931F93CF93DF93EC010E947F
:100D80008B068C01CE010E94A4069801280F391F02
:100D9000C901DF91CF911F910F910895FC018485C6
:100DA0009585FC01E05CFF4F20813181FC01EE5B09
:100DB000FF4F80819181281B390B2F733327C90185
:100DC0000895FC0184859585FC01E05CFF4F40811E
:100DD0005181FC01EE5BFF4F2081318142175307A7
:100DE00041F00190F081E02DE80FF91F208130E003
:100DF00002C02FEF3FEFC9010895FC01848595855E
:100E0000FC01E05CFF4F40815181FC01EE5BFF4F34
:100E1000208131814217530781F0A081B181A80F51
:100E2000B91F8C91208131812F5F3F4F2F73332762
:100E300031832083282F30E002C02FEF3FEFC9011C
:100E40000895FC0186859785FC01E05CFF4FDC017D
:100E5000AE5BBF4F408151812D913C91119742175C
:100E60005307C1F70895CF93DF93FC0186859785DB
:100E7000DC01A05CBF4F2D913C9111972F5F3F4F3C
:100E80002F733327EC01CE5BDF4F48815981241744
:100E90003507D9F30D90BC91A02DA80FB91F6C9305
:100EA000A685B785A05CBF4F11963C932E93A6896B
:100EB000B7892C9181E090E0058C02C0880F991FC2
:100EC0000A94E2F7282B2C9381E090E0DF91CF91F8
:100ED000089508951F920F920FB60F9211242F9329
:100EE0003F934F938F939F93EF93FF934091C6004F
:100EF0008091AD029091AE0201968F739927209157
:100F0000AF023091B0028217930759F0E091AD0221
:100F1000F091AE02E359FD4F40839093AE0280936F
:100F2000AD02FF91EF919F918F914F913F912F9142
:100F30000F900FBE0F901F9018958AE092E00E94CC
:100F4000CE06892B11F00C94690708951F920F9219
:100F50000FB60F9211242F933F938F939F93EF938C
:100F6000FF932091690230916A0280916B02909107
:100F70006C022817390731F48091C1008F7D80936E
:100F8000C10014C0E0916B02F0916C02E75DFD4F6F
:100F9000208180916B0290916C0201968F7399274A
:100FA00090936C0280936B022093C600FF91EF91A7
:100FB0009F918F913F912F910F900FBE0F901F9097
:100FC0001895CF92DF92EF92FF92CF93DF93EC01CF
:100FD0006A017B01411581EE580761057105F9F041
:100FE000EC89FD8981E090E00E8C02C0880F991F8A
:100FF0000A94E2F7808360E079E08DE390E0A70156
:1010000096010E94480A215031094109510956951B
:10101000479537952795211580E1380798F0EC8999
:10102000FD89108260E874E88EE190E0A7019601E6
:101030000E94480A215031094109510956954795A6
:1010400037952795E889F9893083EA89FB892083D8
:10105000EE89FF89408181E090E09C010A8C02C00A
:10106000220F331F0A94E2F7422B4083EE89FF8957
:1010700040819C010B8C02C0220F331F0A94E2F7BF
:10108000422B4083EE89FF8940819C010C8C02C079
:10109000220F331F0A94E2F7422B4083EE89FF8927
:1010A00020810D8C02C0880F991F0A94E2F7809569
:1010B00082238083DF91CF91FF90EF90DF90CF90DC
:1010C000089510920D0210920C0288EE93E0A0E0B9
:1010D000B0E080930E0290930F02A0931002B093A1
:1010E00011028EEB91E090930B0280930A028DE641
:1010F00092E0909317028093160289E292E0909317
:1011000019028093180285EC90E090931B02809363
:101110001A0284EC90E090931D0280931C0280ECF4
:1011200090E090931F0280931E0281EC90E09093D8
:1011300021028093200286EC90E09093230280931A
:10114000220284E08093240283E08093250287E0DA
:101150008093260285E08093270281E08093280215
:1011600008950E9428060E948C00CDE9D7E00E94D5
:1011700037012097E1F30E949D07F9CF0CD0EBC017
:10118000E3D040F0DAD030F021F45F3F19F0CCC06A
:10119000511115C1CFC0F0D098F39923C9F355234D
:1011A000B1F3951B550BBB27AA276217730784075A
:1011B00038F09F5F5F4F220F331F441FAA1FA9F310
:1011C00033D00E2E3AF0E0E830D091505040E69502
:1011D000001CCAF729D0FE2F27D0660F771F881F63
:1011E000BB1F261737074807AB07B0E809F0BB0B52
:1011F000802DBF01FF2793585F4F2AF09E3F510576
:1012000068F092C0DCC05F3FECF3983EDCF386955B
:1012100077956795B795F7959F5FC9F7880F911DEB
:101220009695879597F90895E1E0660F771F881FD7
:10123000BB1F621773078407BA0720F0621B730B8A
:10124000840BBA0BEE1F88F7E095089504D06894DC
:10125000B111B5C0089598D088F09F5790F0B92F7C
:101260009927B751A0F0D1F0660F771F881F991FFB
:101270001AF0BA95C9F712C0B13081F09FD0B1E031
:1012800008959CC0672F782F8827B85F39F0B93F41
:10129000CCF3869577956795B395D9F73EF49095FD
:1012A0008095709561957F4F8F4F9F4F0895E8947B
:1012B00009C097FB3EF490958095709561957F4F9E
:1012C0008F4F9F4F9923A9F0F92F96E9BB2793954C
:1012D000F695879577956795B795F111F8CFFAF45C
:1012E000BB0F11F460FF1BC06F5F7F4F8F4F9F4F8D
:1012F00016C0882311F096E911C0772321F09EE8EB
:10130000872F762F05C0662371F096E8862F70E050
:1013100060E02AF09A95660F771F881FDAF7880F2A
:101320009695879597F9089597F99F6780E870E0FB
:1013300060E008959FEF80EC089500240A9416164B
:10134000170618060906089500240A9412161306B3
:10135000140605060895092E0394000C11F4882341
:1013600052F0BB0F40F4BF2B11F460FF04C06F5F5D
:101370007F4F8F4F9F4F089557FD9058440F551F33
:1013800059F05F3F71F04795880F97FB991F61F007
:101390009F3F79F087950895121613061406551F7E
:1013A000F2CF4695F1DF08C0161617061806991FEA
:1013B000F1CF86957105610508940895E894BB27DF
:1013C00066277727CB0197F908950BD0C4CFB5DFF7
:1013D00028F0BADF18F0952309F0A6CFABCF11247F
:1013E000EECFCADFA0F3959FD1F3950F50E0551FC4
:1013F000629FF001729FBB27F00DB11D639FAA276A
:10140000F00DB11DAA1F649F6627B00DA11D661FB8
:10141000829F2227B00DA11D621F739FB00DA11DD9
:10142000621F839FA00D611D221F749F3327A00D93
:10143000611D231F849F600D211D822F762F6A2F2F
:1014400011249F5750408AF0E1F088234AF0EE0FB4
:10145000FF1FBB1F661F771F881F91505040A9F7C1
:101460009E3F510570F060CFAACF5F3FECF3983EEE
:10147000DCF3869577956795B795F795E7959F5F28
:10148000C1F7FE2B880F911D9695879597F90895C2
:10149000A1E21A2EAA1BBB1BFD010DC0AA1FBB1F78
:1014A000EE1FFF1FA217B307E407F50720F0A21BEA
:1014B000B30BE40BF50B661F771F881F991F1A9457
:1014C00069F760957095809590959B01AC01BD0181
:1014D000CF010895EE0FFF1F0590F491E02D0994C0
:1014E000FB01DC0102C001900D9241505040D8F741
:0614F0000895F894FFCFFF
:1014F60093010C0B0A2A2A2A2A2A2A382C000000D1
:1015060000000000000000000000000000000000D5
:1015160000000000000000000000000000000000C5
:1015260000000000000000000000000000000000B5
:10153600000000000000000000000001000800405C
:101546000000010004050D73657475700049206183
:101556006D203433334D487A204D41535445520D56
:101566000A004920616D203433334D487A20534CAC
:101576004156450D0A00474F543A200053454E54F4
:101586003A200030302E2E2E0030313233343536AC
:10159600373839414243444546000D0E1315161996
:1015A6001A1C232526292A2C323400000000330772
:0A15B6006306CE06FD06E1062107DC
:00000001FF
