:100000000C945C000C9479000C9479000C947900A9
:100010000C9479000C9479000C9479000C9479007C
:100020000C9479000C9479000C9479000C9479006C
:100030000C9479000C9479000C9479000C9479005C
:100040000C94A8010C9479000C9479000C9479001C
:100050000C9479000C9479000C9479000C9479003C
:100060000C9479000C947900000000070002010054
:100070000003040600000000000000000102040864
:100080001020408001020408102001020408102002
:10009000040404040404040402020202020203032E
:1000A0000303030300000000250028002B000000CC
:1000B0000000240027002A0011241FBECFEFD8E043
:1000C000DEBFCDBF11E0A0E0B1E0E8E1F5E002C0A5
:1000D00005900D92A635B107D9F711E0A6E5B1E07C
:1000E00001C01D92A136B107E1F70E947D020C9478
:1000F0008A020C940000CF93DF93C82F60E08091B8
:1001000052010E947101D8E060E0809154010E9488
:1001100071016C2F6078809150010E947101CC0FA9
:1001200061E0809154010E947101D15069F7DF9123
:10013000CF9108950F931F93CF93DF93082F162F1E
:10014000C2E5D1E060E088810E947101802F0E94A9
:100150007B00812F0E947B0061E08881DF91CF913D
:100160001F910F910C94710160E089E00E949A0048
:1001700066E08AE00E949A0067E08BE00E949A00A5
:1001800061E08CE00E949A0060E08FE00C949A009D
:1001900061E0809154010E94390161E08091520137
:1001A0000E94390161E0809150010E94390162E3AF
:1001B00070E080E090E00E941C020C94B400CF93A9
:1001C00010925601C1E025C0C093570113C0E091C1
:1001D000560198E0E99FF0011124E050FF4FE80F2D
:1001E000F11D319760810E949A00809157018F5FC5
:1001F0008093570180915701893048F364EF71E093
:1002000080E090E00E941C02809156018F5F8093F5
:100210005601809156018A30B8F2CF91089583300B
:1002200069F028F48130A1F0823011F514C08630D5
:10023000B1F08730C1F08430D9F404C080918000DF
:100240008F7703C0809180008F7D80938000089518
:1002500084B58F7702C084B58F7D84BD0895809169
:10026000B0008F7703C08091B0008F7D8093B00085
:100270000895CF93DF9390E0FC01E458FF4F449141
:10028000FC01E057FF4F8491882341F190E0880FF3
:10029000991FFC01E255FF4F25913491D9018C55EE
:1002A0009F4FFC0185919491C82FD92F9FB7F89447
:1002B0008C91611106C0409584238C93888184239E
:1002C00008C0623041F4242F209582238C938881CA
:1002D000842B888302C0842B8C939FBFDF91CF91A6
:1002E00008950F931F93CF93DF931F92CDB7DEB77F
:1002F000282F30E0F901E859FF4F8491F901E458C3
:10030000FF4F1491F901E057FF4F04910023D1F002
:10031000882321F069830E940F016981E02FF0E0BA
:10032000EE0FFF1FEC55FF4F85919491DC019FB7B5
:10033000F8948C91611103C01095812301C0812B29
:100340008C939FBF0F90DF91CF911F910F910895D4
:100350001F920F920FB60F9211242F933F938F93FA
:100360009F93AF93BF938091580190915901A091B1
:100370005A01B0915B0130916001232F2D5F2D3721
:1003800020F40196A11DB11D05C0232F2A57029606
:10039000A11DB11D209360018093580190935901D4
:1003A000A0935A01B0935B0180915C0190915D0133
:1003B000A0915E01B0915F010196A11DB11D8093D6
:1003C0005C0190935D01A0935E01B0935F01BF91CA
:1003D000AF919F918F913F912F910F900FBE0F90F2
:1003E0001F9018950F931F939FB7F89400915C018D
:1003F00010915D0120915E0130915F0186B5A89B4F
:1004000006C08F3F21F00F5F1F4F2F4F3F4F9FBF01
:10041000322F212F102F0027080F111D211D311DF4
:1004200042E0000F111F221F331F4A95D1F7B80178
:10043000C9011F910F910895CF92DF92EF92FF9221
:10044000CF93DF936B017C010E94F201EB010EC0A0
:100450000E94F2016C1B7D0B683E734038F081E016
:10046000C81AD108E108F108C851DC4FC114D10401
:10047000E104F10469F7DF91CF91FF90EF90DF90F5
:10048000CF900895789484B5826084BD84B58160EE
:1004900084BD85B5826085BD85B5816085BDEEE68C
:1004A000F0E0808181608083E1E8F0E0108280816B
:1004B00082608083808181608083E0E8F0E08081D9
:1004C00081608083E1EBF0E0808184608083E0EBF9
:1004D000F0E0808181608083EAE7F0E080818460E1
:1004E000808380818260808380818160808380813D
:1004F000806880831092C10008950E9442020E9489
:10050000C800C0E0D0E00E94DF002097E1F30E9425
:080510000000F9CFF894FFCFC1
:10051800003C66666E76663C000818381818183C69
:10052800003C66060C18307E003C66060C06663CED
:100538000020606C6C7E0C0C007E60607C06663C63
:10054800003C66607C66663C007E06060C1818183F
:10055800003C66663C66663C003C66663E06663C59
:06056800080009000A0072
:00000001FF
