:100000000C94AC000C94D4000C94D4000C94B00369
:100010000C94D4030C94F8030C94D4000C94D400E6
:100020000C94D4000C94D4000C94D4000C94D40000
:100030000C94D4000C94D4000C94D4000C94D400F0
:100040000C940C080C94D4000C946A0A0C94A60A24
:100050000C94D4000C94D4000C94D4000C94D400D0
:100060000C94D4000C94D40000C2010001001100D3
:1000700011000C0000E100000A002500250021000D
:10008000009600001900390039003600127A00008D
:100090001F004600460044008070000022004D0012
:1000A0004D004A00004B00003600750075007200DC
:1000B000403800004A009C009C0099008025000008
:1000C0007200EC00EC00E900C0120000E900DA0167
:1000D000DA01D70160090000D701B603B603B30304
:1000E000B0040000B3036E076E076B072C0100001D
:1000F000DC0EC11DC11DBE1D000000070002010075
:1001000000030406000000000000000001020408D3
:100110001020408001020408102001020408102071
:10012000040404040404040402020202020203039D
:100130000303030300000000230026002900000041
:100140000000250028002B000000000024002700EC
:100150002A003602610B3D0211241FBECFEFD8E00A
:10016000DEBFCDBF13E0A0E0B1E0E6E3F8E102C0FE
:1001700005900D92AC30B107D9F714E0ACE0B3E0D4
:1001800001C01D92A032B107E1F711E0C6E5D1E050
:1001900004C02297FE010E940A0CC235D107C9F79C
:1001A0000E94B10B0C940E0C0C9400008DE093E0B7
:1001B0000C9441028DE093E00C948E02682F8DE048
:1001C00093E00C94410340E855E260E070E08DE07C
:1001D00093E00E949A0440E855E260E070E089E70D
:1001E00093E00E94E10A61E084E00E949D0761E0E3
:1001F0008DE00C949D07CF92DF92EF92FF920F93C8
:100200001F93CF93DF93CDB7DEB760970FB6F89407
:10021000DEBF0FBECDBF8091290390912A030196C6
:100220008F3191052CF490932A038093290312C0F7
:1002300010922A03109229036091CC017091CD0194
:1002400089E793E00E942B0960ED71E089E793E074
:100250000E944A09E090C801F090C9010091CA01CA
:100260001091CB0180E0C82E81E0D82E2AE0AE01AB
:100270004F5F5F4F66ED70E08AED90E00E942006D0
:10028000182F813021F080910C038823E1F0009138
:1002900000010023A9F06091CC017091CD0189E7A4
:1002A00093E00E942B0960EE71E089E793E00E94E1
:1002B0002B094DEF51E0602F81E091E00E943E0755
:1002C0001130B1F4BEC06091CC017091CD0189E7CD
:1002D00093E00E942B096BE172E089E793E00E94B2
:1002E0002B094AE050E0612F89E793E00E94C7099B
:1002F000112309F4A6C010922A0310922903F98051
:10030000F11011C00A8167E272E089E793E00E9470
:100310002B094AE050E0602F89E793E00E94C7096B
:1003200063E372E01FC081E0F81641F167E272E01A
:1003300089E793E00E942B094AE050E060E089E7FA
:1003400093E00E94C70960E472E089E793E00E94AD
:100350002B094AE050E06F2D89E793E00E94C7091E
:100360006BE372E089E793E00E942B0948E152E0D9
:10037000612FCE0101960E943E0769C068E472E0D9
:1003800089E793E00E942B0948E152E0612FCE01FA
:1003900001960E943E078A818E01055F1F4F96E0FD
:1003A000F80111929A95E9F7FC8693E09E8794E014
:1003B0009F8795E0988B8D8768EE73E080E090E0F2
:1003C0000E94920861E084E00E94D50720E031E0BD
:1003D00046E0B8018EED90E00E94AC056091CC0142
:1003E0007091CD0189E793E00E942B0966E672E0E7
:1003F00089E793E00E942B0948E152E066E0C801DA
:100400000E943E0760E084E00E94D50780910C03C3
:100410008823B9F0109100016091CC017091CD0159
:1004200089E793E00E942B0960E972E089E793E095
:100430000E942B094DEF51E0612F81E091E00E9475
:100440003E0768E172E089E793E00E942B0960961D
:100450000FB6F894DEBF0FBECDBFDF91CF911F91D5
:100460000F91FF90EF90DF90CF90089520E042E051
:1004700063E08DE093E00C946A048DE093E00C94CB
:10048000640520916D0330916E0328173907C1F47C
:1004900090912B0380912C03981791F0E0912B03FE
:1004A000F0E0E35DFC4F808120912B0330E02F5F73
:1004B0003F4F2F73332720932B03282F30E002C0A8
:1004C0002FEF3FEFC901089520916D0330916E0326
:1004D0002817390781F490912B0380912C039817EA
:1004E00051F0E0912B03F0E0E35DFC4F20813327D6
:1004F00027FD309502C02FEF3FEFC90108952091ED
:100500006D0330916E032817390739F48FB7F894CB
:1005100010922C0310922B038FBF089520916D032E
:1005200030916E032817390779F480912C032091BC
:100530002B0390E0805C9F4F821B910960E470E088
:100540000E94BE0B9C0102C020E030E0C90108956A
:10055000DC015196ED91FC915297208150968C913F
:10056000809582238083089520E001972FEF8F3FAD
:100570009207D9F7089520916D0330916E032817E3
:10058000390789F0FC01238D2E7F238F2FB7F89434
:1005900010922C0310922B0390936E0380936D03A3
:1005A0002FBF81E0089580E00895EF92FF920F93AE
:1005B0001F93CF93DF93EC018B8DEE85FF859D8597
:1005C00081FF04C08081892329F445C0808189236B
:1005D00009F041C08B899C890E94B40208E010E0B8
:1005E000EE24E394F12C8D899E890E94B402EE855D
:1005F000FF8580819D85892311F0FE2803C08E2D03
:100600008095F822EE0C0150110969F78F89988DB9
:100610000E94B4028B8D81FDF09480912C03209177
:100620002B0390E001968F73992730E08217930790
:1006300079F0E0912C03F0E0E35DFC4FF0828091D3
:100640002C0390E001968F73992780932C0303C0AD
:100650008B8D81608B8FDF91CF911F910F91FF90D8
:10066000EF900895611102C00C94A802DC0151962C
:10067000ED91FC915297208150968C91282B2083EC
:100680000895DF92EF92FF920F931F93CF93DF9322
:10069000EC01E62E898D9A8D892B39F481E090E06A
:1006A0009B838A8320E030E049C0DFB6F8946B8DED
:1006B00066956170CE010E943203898D9A8D0596F0
:1006C0000E94B4028B8D08E010E0FF24F39481FFB8
:1006D00017C08F2D8E2121F0CE010E94A80204C0E8
:1006E00061E0CE010E943203898D9A8D0E94B4028E
:1006F000FF0C0150110969F7CE010E94A80217C032
:100700008F2D8E2129F061E0CE010E94320303C0BB
:10071000CE010E94A802898D9A8D0E94B402FF0C1E
:100720000150110969F761E0CE010E943203DFBE7A
:10073000898D9A8D0E94B40221E030E0C901DF91D9
:10074000CF911F910F91FF90EF90DF9008958091CE
:100750006D0390916E03009711F00C94D5020895EB
:100760001F920F920FB60F9211242F933F934F9326
:100770005F936F937F938F939F93AF93BF93EF9309
:10078000FF930E94A703FF91EF91BF91AF919F91BB
:100790008F917F916F915F914F913F912F910F902A
:1007A0000FBE0F901F9018951F920F920FB60F92C9
:1007B00011242F933F934F935F936F937F938F9366
:1007C0009F93AF93BF93EF93FF930E94A703FF9173
:1007D000EF91BF91AF919F918F917F916F915F91B9
:1007E0004F913F912F910F900FBE0F901F90189532
:1007F0001F920F920FB60F9211242F933F934F9396
:100800005F936F937F938F939F93AF93BF93EF9378
:10081000FF930E94A703FF91EF91BF91AF919F912A
:100820008F917F916F915F914F913F912F910F9099
:100830000FBE0F901F9018951F93CF93DF93EC017D
:10084000162F61E0812F0E949D0761E0812F0E9499
:10085000D507812F90E0FC01E45FFE4FE491E88B27
:10086000FC01E05EFE4FE491F0E0EE0FFF1FE25C62
:10087000FE4F85919491898B9A8BDF91CF911F9137
:1008800008951F93CF93DF93EC01162F60E0812F23
:100890000E949D078B8D81FD04C061E0812F0E9425
:1008A000D5071C87812F90E0FC01E45FFE4FE491A7
:1008B000ED87FC01E05EFE4FE491F0E0EE0FFF1FDC
:1008C000EC5CFE4F859194918E879F87DF91CF914D
:1008D0001F910895FF920F931F93CF93DF93EC0125
:1008E000F62E522F1B821A8208EE13E020E030E031
:1008F0000C831D832E833F8388EC92E09983888349
:100900001C8A1B8A1E8A1D8A188E1F8A1A8E198EAF
:100910008B8D8E7F50FB81F98B8F642FCE010E94CF
:100920001C046F2DCE01DF91CF911F910F91FF908D
:100930000C944104FF920F931F93CF93DF93EC012C
:100940001A8E198E188E1F8A1E8A1D8A1C8A1B8A6F
:10095000A0E0B0E02CE0F22EFA9EC001FB9E900DCC
:100960001124FC01E859FF4F05911591259134910F
:100970000417150726073707E9F4FC01E459FF4F70
:10098000259134912B8B3C8BFC01E259FF4F259133
:1009900034912D8B3E8BFC01E059FF4F2591349112
:1009A0002F8B388F8E589F4FFC0185919491898FA2
:1009B0009A8F05C01196AC30B10509F0CDCF8F8963
:1009C000988D892B09F449C03C85363108F041C027
:1009D00040916800383068F081E090E03E3010F4DB
:1009E00080E090E021E030E001C0220F8A95EAF734
:1009F00001C024E0242B209368003C85383038F077
:100A00003E3040F0363148F0E0E0F0E008C0EDE67E
:100A1000F0E005C0EBE6F0E002C0ECE6F0E040817B
:100A2000383040F481E090E0282F01C0220F3A9541
:100A3000EAF70DC0832F90E03E3010F4089701C014
:100A40000E9721E030E001C0220F8A95EAF7242BAF
:100A50002083898D9A8D0E94B402CE01DF91CF91BF
:100A60001F910F91FF900C94BB02FC01448546310D
:100A700050F5483028F04E3030F4EBE6F0E005C099
:100A8000EDE6F0E002C0ECE6F0E05081483040F4E2
:100A900081E090E0042E01C0880F0A94EAF710C0AC
:100AA000242F30E04E3018F42850310902C02E5067
:100AB000310981E090E0022E01C0880F0A94EAF724
:100AC000809585238083089528EC32E0FC013183F2
:100AD00020830C943505FC0180E00FC0419198E023
:100AE000282F30E035952795842780FF02C08CE8B9
:100AF0002827822F4695915099F7615078F70895ED
:100B00000F931F93CF93DF931F92CDB7DEB78C0166
:100B1000262F30E074E0359527957A95E1F78FE040
:100B200090E082279327E4E0220F331FEA95E1F754
:100B3000822B6983F801099569816F70F0E16F9FDD
:100B4000C00111249FE09627892BF8010F90DF91B7
:100B5000CF911F910F9109948F929F92BF92CF9244
:100B6000DF92EF92FF920F931F93CF93DF931F9229
:100B7000CDB7DEB77C01D62EB42E890110926F035B
:100B8000642F8D2D972F79830E946B05C82E82E0EC
:100B9000F701099520916F032F5F20936F03F801F0
:100BA000E20FF11D27FDFA9582E080838D2C79817B
:100BB000972E13C0F4016081C7010E9480059091B7
:100BC0006F039F5F90936F03F40181914F01F801D0
:100BD000E90FF11D97FDFA958083882D8D198B15EE
:100BE00048F36C2DC7010E94800590916F039F5FB1
:100BF00090936F03F801E90FF11D97FDFA95C082FC
:100C000083E0F701099580916F038F5F80936F03F5
:100C1000F801E80FF11D87FDFA9583E0808380914C
:100C20006F03F80180830F90DF91CF911F910F9197
:100C3000FF90EF90DF90CF90BF909F908F9008959E
:100C40002F923F924F925F926F927F928F929F92DC
:100C5000AF92BF92CF92DF92EF92FF920F931F93CA
:100C6000CF93DF93CDB7DEB727970FB6F894DEBFEB
:100C70000FBECDBF9A8389837C836B835F834E8352
:100C80002D834701580186010E9456086B017C01A3
:100C9000F8011082312C412CAFC0E981FA8109950D
:100CA000181619060CF0A8C0EB81FC810995282EB6
:100CB0004394F801E40DF11D80839927893691054D
:100CC00009F46BC024F58E31910509F466C064F413
:100CD0008330910509F44CC08F30910509F45DC053
:100CE000029709F07BC03AC08C33910509F455C0D6
:100CF0002CF48D32910509F071C04FC08B349105F1
:100D000009F44BC08A35910509F068C046C0843BA0
:100D1000910509F442C08CF487389105F1F12CF467
:100D20008837910509F05AC038C086399105A9F174
:100D3000853A910509F052C030C0823D910569F1B4
:100D40002CF4833C910509F049C027C0813E9105F0
:100D500021F1803F910509F041C01FC00E94560853
:100D60006B017C0155245394712C3324339444C07B
:100D7000F72CFA946F2D8E819F810E946B05EE8176
:100D8000FF81E70DF11D31979081F80140828917AD
:100D900009F43FC0FF24F3943CC0332069F19C0167
:100DA000A4E035952795AA95E1F7809590958F70E9
:100DB00099272817390771F751101CC06294F0EF7A
:100DC0006F22622AFD817F1628F7EE81FF81E70DF1
:100DD000F11D60827394552453940EC068E172E053
:100DE00089E793E00E942B0964ED72E0822D0E9456
:100DF000230702C0622E512C0E9456086C197D09EF
:100E00008E099F09681579058A059B0508F445CF69
:100E1000F12C8F2D27960FB6F894DEBF0FBECDBFF5
:100E2000DF91CF911F910F91FF90EF90DF90CF90C6
:100E3000BF90AF909F908F907F906F905F904F90FA
:100E40003F902F900895CF93DF93EB0142E0682FFE
:100E500070E08091CE019091CF010E945D0760917A
:100E6000CE017091CF0189E793E00E942B09BE016A
:100E700089E793E0DF91CF910C942B09EF92FF92D9
:100E80000F931F93CF93DF93F82EE62E8A01EC0188
:100E900005C06EED71E089910E9423078C2F8F1998
:100EA0008E15B8F3B80189E793E0DF91CF911F91D8
:100EB0000F91FF90EF900C942B09DC01A40FB11D52
:100EC00047FDBA951C924150FB01EF70FF27E55199
:100ED000FD4F80818E9384E0769567958A95E1F742
:100EE0004111F1CF0895833069F028F48130A1F0E9
:100EF000823011F514C08630B1F08730C1F08430F3
:100F0000D9F404C0809180008F7703C08091800065
:100F10008F7D80938000089584B58F7702C084B55B
:100F20008F7D84BD08958091B0008F7703C080913C
:100F3000B0008F7D8093B0000895CF93DF9390E051
:100F4000FC01E45FFE4F4491FC01E05EFE4F8491A2
:100F5000882341F190E0880F991FFC01E85BFE4F68
:100F600025913491D901825C9E4FFC018591949129
:100F7000C82FD92F9FB7F8948C91611106C0409566
:100F800084238C938881842308C0623041F4242F09
:100F9000209582238C938881842B888302C0842BA4
:100FA0008C939FBFDF91CF9108950F931F93CF93A1
:100FB000DF931F92CDB7DEB7282F30E0F901E8505C
:100FC000FF4F8491F901E45FFE4F1491F901E05E57
:100FD000FE4F04910023D1F0882321F069830E9401
:100FE00073076981E02FF0E0EE0FFF1FE25CFE4F18
:100FF00085919491DC019FB7F8948C91611103C0A5
:101000001095812301C0812B8C939FBF0F90DF919E
:10101000CF911F910F9108951F920F920FB60F92CB
:1010200011242F933F938F939F93AF93BF938091FE
:10103000700390917103A0917203B091730330918A
:101040007803232F2D5F2D3720F40196A11DB11DAC
:1010500005C0232F2A570296A11DB11D20937803A6
:101060008093700390937103A0937203B093730302
:101070008091740390917503A0917603B0917703EA
:101080000196A11DB11D8093740390937503A093E5
:101090007603B0937703BF91AF919F918F913F916A
:1010A0002F910F900FBE0F901F9018950F931F93C5
:1010B0008FB7F8940091700310917103209172031F
:1010C000309173038FBFB801C9011F910F9108952B
:1010D0000F931F939FB7F8940091740310917503B9
:1010E000209176033091770386B5A89B06C08F3F89
:1010F00021F00F5F1F4F2F4F3F4F9FBF322F212FE8
:10110000102F0027080F111D211D311D42E0000F77
:10111000111F221F331F4A95D1F7B801C9011F9132
:101120000F910895CF92DF92EF92FF92CF93DF93CA
:101130006B017C010E946808EB010EC00E946808E8
:101140006C1B7D0B683E734038F081E0C81AD108F3
:10115000E108F108C851DC4FC114D104E104F104E5
:1011600069F7DF91CF91FF90EF90DF90CF900895D6
:10117000789484B5826084BD84B5816084BD85B572
:10118000826085BD85B5816085BDEEE6F0E0808139
:1011900081608083E1E8F0E010828081826080835A
:1011A000808181608083E0E8F0E0808181608083DD
:1011B000E1EBF0E0808184608083E0EBF0E080810F
:1011C00081608083EAE7F0E08081846080838081B1
:1011D0008260808380818160808380818068808359
:1011E0001092C1000895CF92DF92EF92FF920F9379
:1011F0001F93CF93DF936C01EB017A01E60EF71E8C
:1012000000E010E00BC06991D601ED91FC910190D6
:10121000F081E02DC6010995080F191FCE15DF05D5
:1012200091F7C801DF91CF911F910F91FF90EF903F
:10123000DF90CF900895DB010D900020E9F7AD011C
:1012400041505109461B570BDC01ED91FC91028086
:10125000F381E02D09940C941B09DC01ED91FC91C4
:101260000190F081E02D09940F931F93CF93DF93AA
:10127000EC016DE00E942D098C016AE0CE010E9414
:101280002D099C01200F311FC901DF91CF911F91C2
:101290000F9108950F931F93CF93DF93EC010E945A
:1012A0001B098C01CE010E9434099801280F391FB7
:1012B000C901DF91CF911F910F9108954F925F92D5
:1012C0006F927F929F92AF92BF92CF92DF92EF92F6
:1012D000FF920F931F93CF93DF93CDB7DEB7A19704
:1012E0000FB6F894DEBF0FBECDBF5C016A017B0173
:1012F000922E19A281E0821710F08AE0982E8E01BA
:101300000F5D1F4F492C512C612C712CC701B60168
:10131000A30192010E94D20B8C2D929E8019112460
:10132000015011098A3014F4805D01C0895CF80114
:10133000808369017A01C114D104E104F10431F719
:10134000B801C5010E941B09A1960FB6F894DEBF33
:101350000FBECDBFDF91CF911F910F91FF90EF9006
:10136000DF90CF90BF90AF909F907F906F905F90F5
:101370004F9008952115310541F4DC01ED91FC9168
:101380000190F081E02D642F09940C945E099A017C
:10139000462F50E060E070E00C94BA09FC018485AF
:1013A0009585FC01E05CFF4F20813181FC01EE5B03
:1013B000FF4F80819181281B390B2F733327C9017F
:1013C0000895FC0184859585FC01E05CFF4F408118
:1013D0005181FC01EE5BFF4F2081318142175307A1
:1013E00041F00190F081E02DE80FF91F208130E0FD
:1013F00002C02FEF3FEFC9010895FC018485958558
:10140000FC01E05CFF4F40815181FC01EE5BFF4F2E
:10141000208131814217530781F0A081B181A80F4B
:10142000B91F8C91208131812F5F3F4F2F7333275C
:1014300031832083282F30E002C02FEF3FEFC90116
:101440000895FC0186859785FC01E05CFF4FDC0177
:10145000AE5BBF4F408151812D913C911197421756
:101460005307C1F70895CF93DF93FC0186859785D5
:10147000DC01A05CBF4F2D913C9111972F5F3F4F36
:101480002F733327EC01CE5BDF4F4881598124173E
:101490003507D9F30D90BC91A02DA80FB91F6C93FF
:1014A000A685B785A05CBF4F11963C932E93A68965
:1014B000B7892C9181E090E0058C02C0880F991FBC
:1014C0000A94E2F7282B2C9381E090E0DF91CF91F2
:1014D000089508951F920F920FB60F9211242F9323
:1014E0003F934F938F939F93EF93FF934091C60049
:1014F00080911C0490911D0401968F73992720916F
:101500001E0430911F048217930759F0E0911C04C8
:10151000F0911D04E452FC4F408390931D0480938E
:101520001C04FF91EF919F918F914F913F912F91CB
:101530000F900FBE0F901F90189589E793E00E94BF
:10154000CE09892B11F00C94690A08951F920F920D
:101550000FB60F9211242F933F938F939F93EF9386
:10156000FF932091D8033091D9038091DA039091B1
:10157000DB032817390731F48091C1008F7D8093F8
:10158000C10014C0E091DA03F091DB03E856FC4F90
:1015900020818091DA039091DB0301968F73992764
:1015A0009093DB038093DA032093C600FF91EF91C1
:1015B0009F918F913F912F910F900FBE0F901F9091
:1015C0001895CF92DF92EF92FF92CF93DF93EC01C9
:1015D0006A017B01411581EE580761057105F9F03B
:1015E000EC89FD8981E090E00E8C02C0880F991F84
:1015F0000A94E2F7808360E079E08DE390E0A70150
:1016000096010E94D20B215031094109510956958A
:10161000479537952795211580E1380798F0EC8993
:10162000FD89108260E874E88EE190E0A7019601E0
:101630000E94D20B21503109410951095695479515
:1016400037952795E889F9893083EA89FB892083D2
:10165000EE89FF89408181E090E09C010A8C02C004
:10166000220F331F0A94E2F7422B4083EE89FF8951
:1016700040819C010B8C02C0220F331F0A94E2F7B9
:10168000422B4083EE89FF8940819C010C8C02C073
:10169000220F331F0A94E2F7422B4083EE89FF8921
:1016A00020810D8C02C0880F991F0A94E2F7809563
:1016B00082238083DF91CF91FF90EF90DF90CF90D6
:1016C000089510927C0310927B0388EE93E0A0E0D3
:1016D000B0E080937D0390937E03A0937F03B0934B
:1016E000800380E093E090937A03809379038CEDFC
:1016F00093E0909386038093850388E993E0909329
:1017000088038093870385EC90E090938A0380930D
:10171000890384EC90E090938C0380938B0380EC9E
:1017200090E090938E0380938D0381EC90E09093F2
:10173000900380938F0386EC90E0909392038093C4
:10174000910384E08093930383E08093940387E084
:101750008093950385E08093960381E080939703BF
:1017600008950E94B8080E94E300CDE9DAE00E94E3
:10177000FB002097E1F30E949D0AF9CF97FB072E0B
:1017800016F4009407D077FD09D00E94F40B07FCF3
:1017900005D03EF4909581959F4F08957095619581
:1017A0007F4F0895A1E21A2EAA1BBB1BFD010DC09D
:1017B000AA1FBB1FEE1FFF1FA217B307E407F50701
:1017C00020F0A21BB30BE40BF50B661F771F881FDD
:1017D000991F1A9469F760957095809590959B0173
:1017E000AC01BD01CF010895AA1BBB1B51E107C08D
:1017F000AA1FBB1FA617B70710F0A61BB70B881FA1
:10180000991F5A95A9F780959095BC01CD0108952F
:10181000EE0FFF1F0590F491E02D099411E0C6E54D
:10182000D1E004C0FE010E940A0C2296C835D107FF
:06183000C9F7F894FFCF98
:1018360020202020202020202020202020202020A2
:101846002020202020202020202020202020202092
:101856002020202020202020202020202020202082
:101866002020202020202020202020202020202072
:101876000000000000000000000000000000000062
:101886000000000000000000000000000000000052
:101896000000000000000000000000000000000042
:1018A6000000000000000000000000000000000032
:1018B6000000000000000000000000000000000022
:1018C6000000000000000000000000000000000012
:1018D6000000000000000000000000000000000002
:1018E60000000000000000000000000000000000F2
:1018F600000000000000000010270000BA02E50208
:10190600202D2049646C6520537461746521200084
:10191600202D204445425547204461746920726950
:10192600636576757469202020203A2000202D20DA
:101936005B535458202E2E2E646174612E2E2E2059
:10194600435243204554585D0A0D00202020207242
:1019560063764C656E3A0020202D2066726F6D3AD4
:10196600205B005D20746F3A205B305D202D2000E7
:101976005D20746F3A205B0020202D20436F6D613F
:101986006E646F20726963657675746F20202020FF
:101996002020203A20002020202020202020202047
:1019A600202020202D20526973706F737461206986
:1019B6006E7669617461202020202020203A200064
:1019C60020202020202020202020202020202D2004
:1019D600444542554720526973706F73746120699C
:1019E6006E7669617461203A20005B536C6176659E
:1019F60030315D00000000004103F3088E02410211
:101A060064027F022020756E6B6E6F776E2062799E
:101A160074650D0A0030302E2E2E003031323334EC
:101A26003536373839414243444546000000000008
:0C1A3600330AF308CE09FD09E109210A7A
:00000001FF
