:100000000C94AC000C94D4000C94D4000C944D03CC
:100010000C9471030C9495030C94D4000C94D400AC
:100020000C94D4000C94D4000C94D4000C94D40000
:100030000C94D4000C94D4000C94D4000C94D400F0
:100040000C94A9070C94D4000C94070A0C94430A4E
:100050000C94D4000C94D4000C94D4000C94D400D0
:100060000C94D4000C94D40000C2010001001100D3
:1000700011000C0000E100000A002500250021000D
:10008000009600001900390039003600127A00008D
:100090001F004600460044008070000022004D0012
:1000A0004D004A00004B00003600750075007200DC
:1000B000403800004A009C009C0099008025000008
:1000C0007200EC00EC00E900C0120000E900DA0167
:1000D000DA01D70160090000D701B603B603B30304
:1000E000B0040000B3036E076E076B072C0100001D
:1000F000DC0EC11DC11DBE1D000000070002010075
:1001000000030406000000000000000001020408D3
:100110001020408001020408102001020408102071
:10012000040404040404040402020202020203039D
:100130000303030300000000230026002900000041
:100140000000250028002B000000000024002700EC
:100150002A00D301FE0ADA0111241FBECFEFD8E036
:10016000DEBFCDBF13E0A0E0B1E0E0E7F7E102C001
:1001700005900D92A433B107D9F714E0A4E3B3E0DE
:1001800001C01D92A534B107E1F711E0C6E5D1E049
:1001900004C02297FE010E94A70BC235D107C9F700
:1001A0000E944E0B0C94AB0B0C94000084E393E084
:1001B0000C94DE0184E393E00C942B02682F84E31B
:1001C00093E00C94DE0240E855E260E070E08EE9D6
:1001D00093E00E947E0A40E855E260E070E084E32C
:1001E00093E00E94370460E085E00E943A0761E0F6
:1001F00084E00E943A0761E08DE00C943A071F9377
:10020000CF93DF9300D01F92CDB7DEB791E09983F3
:1002100092E09A838B8361E084E00E94720720E081
:1002200031E043E0BE016F5F7F4F8EED90E00E94B2
:10023000490560E084E00E9472078091C80188232C
:1002400071F0109100016BEC71E08EE993E00E9477
:10025000C80843EF51E0612F81E091E00BC06FE0EF
:1002600072E08EE993E00E94C8084BE053E063E03F
:10027000CE0101960E94DB060F900F900F90DF9148
:10028000CF911F910895CF92DF92EF92FF920F933B
:100290001F93CF93DF93CDB7DEB72A970FB6F894AD
:1002A000DEBF0FBECDBF20E0C22E21E0D22E7B01EB
:1002B0008C012AE0AE014F5F5F4F66ED70E08AED82
:1002C00090E00E94BD05182F61E0811160E08DE093
:1002D0000E9472078091C801882379F00091000183
:1002E00067E372E08EE993E00E94C80843EF51E0B3
:1002F000602F81E091E00E94DB06112351F06FE551
:1003000072E08EE993E00E94C8084BE053E0612F51
:1003100009C067E872E08EE993E00E94C8084BE0EC
:1003200053E060E0CE0101960E94DB06812F2A9601
:100330000FB6F894DEBF0FBECDBFDF91CF911F91F6
:100340000F91FF90EF90DF90CF900895C0E06BE0A9
:1003500073E08EE993E00E94E7088C2F0E94FF0073
:1003600060E177E280E090E00E944301882399F009
:1003700063EB72E08EE993E00E94C8084AE050E027
:100380006AE08EE993E00E9464096BE073E08EE915
:1003900093E00E94E70860E177E280E090E00E944D
:1003A0002F08CF5FD4CF20E042E063E084E393E006
:1003B0000C94070484E393E00C94010520919203CC
:1003C0003091930328173907C1F49091500380911D
:1003D0005103981791F0E0915003F0E0EE5AFC4F72
:1003E00080812091500330E02F5F3F4F2F733327E0
:1003F00020935003282F30E002C02FEF3FEFC901B8
:10040000089520919203309193032817390781F4BE
:100410009091500380915103981751F0E09150034F
:10042000F0E0EE5AFC4F2081332727FD309502C0C3
:100430002FEF3FEFC901089520919203309193036C
:100440002817390739F48FB7F89410925103109296
:1004500050038FBF08952091920330919303281782
:10046000390779F4809151032091500390E0805C2A
:100470009F4F821B910960E470E00E945B0B9C011E
:1004800002C020E030E0C9010895DC015196ED91F1
:10049000FC915297208150968C9180958223808385
:1004A000089520E001972FEF8F3F9207D9F7089525
:1004B00020919203309193032817390789F0FC01AA
:1004C000238D2E7F238F2FB7F89410925103109213
:1004D000500390939303809392032FBF81E008957C
:1004E00080E00895EF92FF920F931F93CF93DF93D5
:1004F000EC018B8DEE85FF859D8581FF04C0808199
:10050000892329F445C08081892309F041C08B8962
:100510009C890E94510208E010E0EE24E394F12C43
:100520008D899E890E945102EE85FF8580819D857F
:10053000892311F0FE2803C08E2D8095F822EE0C41
:100540000150110969F78F89988D0E9451028B8D96
:1005500081FDF094809151032091500390E0019629
:100560008F73992730E08217930779F0E091510358
:10057000F0E0EE5AFC4FF0828091510390E001963A
:100580008F7399278093510303C08B8D81608B8F6C
:10059000DF91CF911F910F91FF90EF90089561111E
:1005A00002C00C944502DC015196ED91FC915297EA
:1005B000208150968C91282B20830895DF92EF9212
:1005C000FF920F931F93CF93DF93EC01E62E898D5B
:1005D0009A8D892B39F481E090E09B838A8320E017
:1005E00030E049C0DFB6F8946B8D66956170CE013E
:1005F0000E94CF02898D9A8D05960E9451028B8DA3
:1006000008E010E0FF24F39481FF17C08F2D8E21A6
:1006100021F0CE010E94450204C061E0CE010E949B
:10062000CF02898D9A8D0E945102FF0C0150110951
:1006300069F7CE010E94450217C08F2D8E2129F047
:1006400061E0CE010E94CF0203C0CE010E944502AC
:10065000898D9A8D0E945102FF0C0150110969F792
:1006600061E0CE010E94CF02DFBE898D9A8D0E948B
:10067000510221E030E0C901DF91CF911F910F912C
:10068000FF90EF90DF9008958091920390919303F3
:10069000009711F00C94720208951F920F920FB6FA
:1006A0000F9211242F933F934F935F936F937F93F8
:1006B0008F939F93AF93BF93EF93FF930E94440355
:1006C000FF91EF91BF91AF919F918F917F916F912A
:1006D0005F914F913F912F910F900FBE0F901F9000
:1006E00018951F920F920FB60F9211242F933F93DC
:1006F0004F935F936F937F938F939F93AF93BF932A
:10070000EF93FF930E944403FF91EF91BF91AF914C
:100710009F918F917F916F915F914F913F912F9119
:100720000F900FBE0F901F9018951F920F920FB64B
:100730000F9211242F933F934F935F936F937F9367
:100740008F939F93AF93BF93EF93FF930E944403C4
:10075000FF91EF91BF91AF919F918F917F916F9199
:100760005F914F913F912F910F900FBE0F901F906F
:1007700018951F93CF93DF93EC01162F61E0812F23
:100780000E943A0761E0812F0E947207812F90E05A
:10079000FC01E45FFE4FE491E88BFC01E05EFE4F5C
:1007A000E491F0E0EE0FFF1FE25CFE4F8591949123
:1007B000898B9A8BDF91CF911F9108951F93CF93CF
:1007C000DF93EC01162F60E0812F0E943A078B8D9A
:1007D00081FD04C061E0812F0E9472071C87812F78
:1007E00090E0FC01E45FFE4FE491ED87FC01E05EE8
:1007F000FE4FE491F0E0EE0FFF1FEC5CFE4F8591A1
:1008000094918E879F87DF91CF911F910895FF92DA
:100810000F931F93CF93DF93EC01F62E522F1B8281
:100820001A8208EE13E020E030E00C831D832E8353
:100830003F838CEE92E0998388831C8A1B8A1E8AF0
:100840001D8A188E1F8A1A8E198E8B8D8E7F50FBF3
:1008500081F98B8F642FCE010E94B9036F2DCE01D9
:10086000DF91CF911F910F91FF900C94DE03FF92C7
:100870000F931F93CF93DF93EC011A8E198E188E6E
:100880001F8A1E8A1D8A1C8A1B8AA0E0B0E02CE009
:10089000F22EFA9EC001FB9E900D1124FC01E85936
:1008A000FF4F0591159125913491041715072607DF
:1008B0003707E9F4FC01E459FF4F259134912B8B64
:1008C0003C8BFC01E259FF4F259134912D8B3E8BDF
:1008D000FC01E059FF4F259134912F8B388F8E58B2
:1008E0009F4FFC0185919491898F9A8F05C0119635
:1008F000AC30B10509F0CDCF8F89988D892B09F4E3
:1009000049C03C85363108F041C04091680038301C
:1009100068F081E090E03E3010F480E090E021E06B
:1009200030E001C0220F8A95EAF701C024E0242BB1
:10093000209368003C85383038F03E3040F0363146
:1009400048F0E0E0F0E008C0EDE6F0E005C0EBE6DE
:10095000F0E002C0ECE6F0E04081383040F481E0A5
:1009600090E0282F01C0220F3A95EAF70DC0832F9F
:1009700090E03E3010F4089701C00E9721E030E07F
:1009800001C0220F8A95EAF7242B2083898D9A8D46
:100990000E945102CE01DF91CF911F910F91FF90E4
:1009A0000C945802FC014485463150F5483028F03B
:1009B0004E3030F4EBE6F0E005C0EDE6F0E002C0CA
:1009C000ECE6F0E05081483040F481E090E0042E05
:1009D00001C0880F0A94EAF710C0242F30E04E308F
:1009E00018F42850310902C02E50310981E090E0FE
:1009F000022E01C0880F0A94EAF780958523808330
:100A000008952CEE32E0FC01318320830C94D20453
:100A1000FC0180E00FC0419198E0282F30E035952F
:100A20002795842780FF02C08CE82827822F4695CF
:100A3000915099F7615078F708950F931F93CF93D2
:100A4000DF931F92CDB7DEB78C01262F30E074E024
:100A5000359527957A95E1F78FE090E082279327E7
:100A6000E4E0220F331FEA95E1F7822B6983F80156
:100A7000099569816F70F0E16F9FC00111249FE0BB
:100A80009627892BF8010F90DF91CF911F910F913D
:100A900009948F929F92BF92CF92DF92EF92FF9232
:100AA0000F931F93CF93DF931F92CDB7DEB77C01D7
:100AB000D62EB42E890110929403642F8D2D972F7A
:100AC00079830E940805C82E82E0F70109952091DC
:100AD00094032F5F20939403F801E20FF11D27FD8B
:100AE000FA9582E080838D2C7981972E13C0F401D2
:100AF0006081C7010E941D05909194039F5F9093B0
:100B00009403F40181914F01F801E90FF11D97FD64
:100B1000FA958083882D8D198B1548F36C2DC701AC
:100B20000E941D05909194039F5F90939403F80198
:100B3000E90FF11D97FDFA95C08283E0F701099551
:100B4000809194038F5F80939403F801E80FF11D67
:100B500087FDFA9583E0808380919403F801808378
:100B60000F90DF91CF911F910F91FF90EF90DF9049
:100B7000CF90BF909F908F9008952F923F924F9269
:100B80005F926F927F928F929F92AF92BF92CF921D
:100B9000DF92EF92FF920F931F93CF93DF93CDB726
:100BA000DEB727970FB6F894DEBF0FBECDBF9A838E
:100BB00089837C836B835F834E832D834701580138
:100BC00086010E94F3076B017C01F8011082312C31
:100BD000412CAFC0E981FA810995181619060CF06D
:100BE000A8C0EB81FC810995282E4394F801E40DFF
:100BF000F11D808399278936910509F46BC024F58E
:100C00008E31910509F466C064F48330910509F4CE
:100C10004CC08F30910509F45DC0029709F07BC08C
:100C20003AC08C33910509F455C02CF48D329105EE
:100C300009F071C04FC08B34910509F44BC08A355F
:100C4000910509F068C046C0843B910509F442C093
:100C50008CF487389105F1F12CF48837910509F06F
:100C60005AC038C086399105A9F1853A910509F035
:100C700052C030C0823D910569F12CF4833C91054E
:100C800009F049C027C0813E910521F1803F9105BF
:100C900009F041C01FC00E94F3076B017C0155247D
:100CA0005394712C3324339444C0F72CFA946F2D51
:100CB0008E819F810E940805EE81FF81E70DF11D65
:100CC00031979081F8014082891709F43FC0FF24D1
:100CD000F3943CC0332069F19C01A4E0359527953D
:100CE000AA95E1F7809590958F7099272817390775
:100CF00071F751101CC06294F0EF6F22622AFD81DF
:100D00007F1628F7EE81FF81E70DF11D6082739455
:100D1000552453940EC068EF72E08EE993E00E9470
:100D2000C8086BEF72E0822D0E94C00602C0622EDE
:100D3000512C0E94F3076C197D098E099F096815D3
:100D400079058A059B0508F445CFF12C8F2D279650
:100D50000FB6F894DEBF0FBECDBFDF91CF911F91CC
:100D60000F91FF90EF90DF90CF90BF90AF909F904A
:100D70008F907F906F905F904F903F902F9008954D
:100D8000CF93DF93EB0142E0682F70E08091C901BF
:100D90009091CA010E94FA066091C9017091CA013E
:100DA0008EE993E00E94C808BE018EE993E0DF91CE
:100DB000CF910C94C808EF92FF920F931F93CF939B
:100DC000DF93F82EE62E8A01EC0105C065E372E0A0
:100DD00089910E94C0068C2F8F198E15B8F3B80127
:100DE0008EE993E0DF91CF911F910F91FF90EF90EB
:100DF0000C94C808DC01A40FB11D47FDBA951C92E4
:100E00004150FB01EF70FF27EE5EFC4F80818E9317
:100E100084E0769567958A95E1F74111F1CF0895C1
:100E2000833069F028F48130A1F0823011F514C0CC
:100E30008630B1F08730C1F08430D9F404C080919D
:100E400080008F7703C0809180008F7D8093800029
:100E5000089584B58F7702C084B58F7D84BD0895D1
:100E60008091B0008F7703C08091B0008F7D809318
:100E7000B0000895CF93DF9390E0FC01E45FFE4F54
:100E80004491FC01E05EFE4F8491882341F190E0A3
:100E9000880F991FFC01E85BFE4F25913491D90121
:100EA000825C9E4FFC0185919491C82FD92F9FB7EA
:100EB000F8948C91611106C0409584238C938881AD
:100EC000842308C0623041F4242F209582238C9320
:100ED0008881842B888302C0842B8C939FBFDF91F1
:100EE000CF9108950F931F93CF93DF931F92CDB7A8
:100EF000DEB7282F30E0F901E850FF4F8491F90167
:100F0000E45FFE4F1491F901E05EFE4F049100236F
:100F1000D1F0882321F069830E9410076981E02FB6
:100F2000F0E0EE0FFF1FE25CFE4F85919491DC0133
:100F30009FB7F8948C91611103C01095812301C073
:100F4000812B8C939FBF0F90DF91CF911F910F91B9
:100F500008951F920F920FB60F9211242F933F9373
:100F60008F939F93AF93BF93809195039091960336
:100F7000A0919703B091980330919D03232F2D5F8B
:100F80002D3720F40196A11DB11D05C0232F2A572E
:100F90000296A11DB11D20939D038093950390930C
:100FA0009603A0939703B09398038091990390912F
:100FB0009A03A0919B03B0919C030196A11DB11DC2
:100FC0008093990390939A03A0939B03B0939C03FF
:100FD000BF91AF919F918F913F912F910F900FBE35
:100FE0000F901F9018950F931F938FB7F89400914F
:100FF00095031091960320919703309198038FBF2A
:10100000B801C9011F910F9108950F931F939FB7C6
:10101000F8940091990310919A0320919B033091C9
:101020009C0386B5A89B06C08F3F21F00F5F1F4F22
:101030002F4F3F4F9FBF322F212F102F0027080F18
:10104000111D211D311D42E0000F111F221F331FF2
:101050004A95D1F7B801C9011F910F910895CF9218
:10106000DF92EF92FF92CF93DF936B017C010E949E
:101070000508EB010EC00E9405086C1B7D0B683E45
:10108000734038F081E0C81AD108E108F108C8516E
:10109000DC4FC114D104E104F10469F7DF91CF9171
:1010A000FF90EF90DF90CF900895789484B58260A0
:1010B00084BD84B5816084BD85B5826085BD85B5FC
:1010C000816085BDEEE6F0E0808181608083E1E8AB
:1010D000F0E01082808182608083808181608083E3
:1010E000E0E8F0E0808181608083E1EBF0E08081E6
:1010F00084608083E0EBF0E0808181608083EAE7B8
:10110000F0E0808184608083808182608083808140
:10111000816080838081806880831092C1000895FF
:10112000CF92DF92EF92FF920F931F93CF93DF93B3
:101130006C01EB017A01E60EF71E00E010E00BC037
:101140006991D601ED91FC910190F081E02DC601ED
:101150000995080F191FCE15DF0591F7C801DF911A
:10116000CF911F910F91FF90EF90DF90CF90089556
:10117000DB010D900020E9F7AD0141505109461BFC
:10118000570BDC01ED91FC910280F381E02D099475
:101190000C94B808DC01ED91FC910190F081E02DF8
:1011A00009940F931F93CF93DF93EC016DE00E949E
:1011B000CA088C016AE0CE010E94CA089C01200F77
:1011C000311FC901DF91CF911F910F9108950F93A6
:1011D0001F93CF93DF93EC010E94B8088C01CE01DE
:1011E0000E94D1089801280F391FC901DF91CF91C2
:1011F0001F910F9108954F925F926F927F929F92ED
:10120000AF92BF92CF92DF92EF92FF920F931F9314
:10121000CF93DF93CDB7DEB7A1970FB6F894DEBFBB
:101220000FBECDBF5C016A017B01922E19A281E045
:10123000821710F08AE0982E8E010F5D1F4F492C07
:10124000512C612C712CC701B601A30192010E949F
:101250006F0B8C2D929E80191124015011098A3038
:1012600014F4805D01C0895CF801808369017A0112
:10127000C114D104E104F10431F7B801C5010E94A1
:10128000B808A1960FB6F894DEBF0FBECDBFDF91B0
:10129000CF911F910F91FF90EF90DF90CF90BF9073
:1012A000AF909F907F906F905F904F900895211521
:1012B000310541F4DC01ED91FC910190F081E02DCC
:1012C000642F09940C94FB089A01462F50E060E0CB
:1012D00070E00C945709FC0184859585FC01E05C65
:1012E000FF4F20813181FC01EE5BFF4F80819181B6
:1012F000281B390B2F733327C9010895FC018485FE
:101300009585FC01E05CFF4F40815181FC01EE5B63
:10131000FF4F208131814217530741F00190F08146
:10132000E02DE80FF91F208130E002C02FEF3FEFE2
:10133000C9010895FC0184859585FC01E05CFF4F9F
:1013400040815181FC01EE5BFF4F208131814217CA
:10135000530781F0A081B181A80FB91F8C91208122
:1013600031812F5F3F4F2F73332731832083282F05
:1013700030E002C02FEF3FEFC9010895FC018685E0
:101380009785FC01E05CFF4FDC01AE5BBF4F408105
:1013900051812D913C91119742175307C1F7089540
:1013A000CF93DF93FC0186859785DC01A05CBF4F5E
:1013B0002D913C9111972F5F3F4F2F733327EC01F5
:1013C000CE5BDF4F4881598124173507D9F30D9043
:1013D000BC91A02DA80FB91F6C93A685B785A05C02
:1013E000BF4F11963C932E93A689B7892C9181E02B
:1013F00090E0058C02C0880F991F0A94E2F7282B11
:101400002C9381E090E0DF91CF91089508951F9291
:101410000F920FB60F9211242F933F934F938F93F8
:101420009F93EF93FF934091C60080914104909168
:10143000420401968F73992720914304309144040C
:101440008217930759F0E0914104F0914204EF5F55
:10145000FB4F40839093420480934104FF91EF91AE
:101460009F918F914F913F912F910F900FBE0F90B1
:101470001F9018958EE993E00E946B09892B11F05B
:101480000C94060A08951F920F920FB60F92112422
:101490002F933F938F939F93EF93FF932091FD039F
:1014A0003091FE038091FF039091000428173907C3
:1014B00031F48091C1008F7D8093C10014C0E09110
:1014C000FF03F0910004E354FC4F20818091FF035F
:1014D0009091000401968F73992790930004809354
:1014E000FF032093C600FF91EF919F918F913F9151
:1014F0002F910F900FBE0F901F901895CF92DF92F3
:10150000EF92FF92CF93DF93EC016A017B014115CB
:1015100081EE580761057105F9F0EC89FD8981E0DC
:1015200090E00E8C02C0880F991F0A94E2F7808326
:1015300060E079E08DE390E0A70196010E946F0BD7
:1015400021503109410951095695479537952795FD
:10155000211580E1380798F0EC89FD89108260E858
:1015600074E88EE190E0A70196010E946F0B215074
:101570003109410951095695479537952795E889CD
:10158000F9893083EA89FB892083EE89FF894081CC
:1015900081E090E09C010A8C02C0220F331F0A9464
:1015A000E2F7422B4083EE89FF8940819C010B8C3E
:1015B00002C0220F331F0A94E2F7422B4083EE89C8
:1015C000FF8940819C010C8C02C0220F331F0A94BA
:1015D000E2F7422B4083EE89FF8920810D8C02C007
:1015E000880F991F0A94E2F7809582238083DF9108
:1015F000CF91FF90EF90DF90CF9008951092A103CC
:101600001092A00388EE93E0A0E0B0E08093A203E4
:101610009093A303A093A403B093A50387E293E060
:1016200090939F0380939E0381E094E09093AB039B
:101630008093AA038DEB93E09093AD038093AC036A
:1016400085EC90E09093AF038093AE0384EC90E040
:101650009093B1038093B00380EC90E09093B30338
:101660008093B20381EC90E09093B5038093B40330
:1016700086EC90E09093B7038093B60384E0809368
:10168000B80383E08093B90387E08093BA0385E0D1
:101690008093BB0381E08093BC0308950E945508AA
:1016A0000E94E300CAE3DAE00E94A6012097E1F37A
:1016B0000E943A0AF9CF97FB072E16F4009407D040
:1016C00077FD09D00E94910B07FC05D03EF4909560
:1016D00081959F4F0895709561957F4F0895A1E280
:1016E0001A2EAA1BBB1BFD010DC0AA1FBB1FEE1F9C
:1016F000FF1FA217B307E407F50720F0A21BB30BE7
:10170000E40BF50B661F771F881F991F1A9469F762
:1017100060957095809590959B01AC01BD01CF01BE
:101720000895AA1BBB1B51E107C0AA1FBB1FA61728
:10173000B70710F0A61BB70B881F991F5A95A9F77A
:1017400080959095BC01CD010895EE0FFF1F059087
:10175000F491E02D099411E0C6E5D1E004C0FE014A
:101760000E94A70B2296C835D107C9F7F894FFCF7E
:101770002020202020202020202020202020202069
:101780002020202020202020202020202020202059
:101790002020202020202020202020202020202049
:1017A0002020202020202020202020202020202039
:1017B0000000000000000000000000000000000029
:1017C0000000000000000000000000000000000019
:1017D0000000000000000000000000000000000009
:1017E00000000000000000000000000000000000F9
:1017F00000000000000000000000000000000000E9
:1018000000000000000000000000000000000000D8
:1018100000000000000000000000000000000000C8
:1018200000000000000000000000000000000000B8
:101830000000000000000000010C030D0A5B4D6178
:10184000737465725D202D20444542554720436FD7
:101850006D616E646F2020696E766961746F2020FF
:101860003A2000202D205B535458202E2E2E6461E8
:1018700074612E2E2E20435243204554585D000D96
:101880000A5B4D61737465725D202D20436F6D613D
:101890006E646F2020696E766961746F202020204D
:1018A000202020203A20000D0A5B4D617374657280
:1018B0005D202D20444542554720526973706F7357
:1018C0007461207269636576757461203A20000D39
:1018D0000A5B4D61737465725D202D2052697370CF
:1018E0006F7374612072696365767574612020205E
:1018F000202020203A20000D0A5B4D617374657230
:101900005D202D2054494D454F5554207761697411
:10191000696E6720726573706F6E73652E206C65DB
:101920006E3D000D0A5B4D61737465725D202D2064
:10193000576F726B696E67206F6E20726573706F80
:101940006E736520646174612E20536C65657069E7
:101950006E6720666F72200000000000DE029008B3
:101960002B02DE0101021C020A0D002020756E6BA5
:101970006E6F776E20627974650D0A0030302E2EFE
:101980002E00303132333435363738394142434412
:1019900045460000000000D00990086B099A097EB6
:0419A00009BE090073
:00000001FF
