:100000000C9463000C942A030C9457030C948B00FB
:100010000C948B000C948B000C948B000C948B0034
:100020000C948B000C948B000C948B000C948B0024
:100030000C948B000C948B000C948B000C948B0014
:100040000C9484030C948B000C94BF050C94FB055A
:100050000C948B000C948B000C948B000C948B00F4
:100060000C948B000C948B00000000070002010030
:100070000003040600000000000000000102040864
:100080001020408001020408102001020408102002
:10009000040404040404040402020202020203032E
:1000A00003030303000000002300260029000000D2
:1000B0000000250028002B0000000000240027007D
:1000C0002A004402B60611241FBECFEFD8E0DEBFDF
:1000D000CDBF11E0A0E0B1E0ECE7FAE102C005908D
:1000E0000D92A23BB107D9F712E0A2EBB1E001C03B
:1000F0001D92A93AB107E1F710E0C6ECD0E004C0C8
:100100002297FE010E942008C23CD107C9F70E9435
:10011000DB070C943C0D0C94000040E855E260E0D5
:1001200070E08EEF91E00E94360661E08DE00E9463
:10013000920260E082E00E9492028DE290E0909351
:10014000E3018093E20168E071E08EEF91E00C94AE
:100150009B04CF92DF92EF92FF920F931F93CF9366
:10016000DF938091E0019091E1019093DF01809312
:10017000DE011092BC011092BB011092BA011092E4
:10018000B2011092B3011092B4011092B501CCEB00
:10019000D1E000E211E0EE24E394F12C7DC0109256
:1001A000BB011092BA0114C082E00E940103909337
:1001B000DF018093DE0184E690E00E941E048091BE
:1001C000BA019091BB0101969093BB018093BA0153
:1001D0008091DE019091DF012091E0013091E101F9
:1001E0008217930709F39093E1018093E0018091D6
:1001F000BA019091BB010A972CF0F092B901E092FC
:10020000B80104C01092B9011092B8018091B901EF
:100210008F938091B8018F93DF93CF931F930F93A8
:10022000DF93CF930E94540A4091B8015091B901D5
:10023000662757FD6095762F8091B2019091B301AA
:10024000A091B401B091B501880F991FAA1FBB1FDF
:10025000480F591F6A1F7B1F4093B2015093B3018F
:100260006093B4017093B5018FEFC81AD80A8DB7A7
:100270009EB708960FB6F8949EBF0FBE8DBF90E252
:10028000C916D10459F48091E2019091E3010196DD
:100290009093BB018093BA01C12CD12C2091BA015B
:1002A0003091BB018091E2019091E3012817390759
:1002B0000CF475CFC601DF91CF911F910F91FF9084
:1002C000EF90DF90CF900895CF93DF93CDB7DEB757
:1002D00027970FB6F894DEBF0FBECDBF82E00E9415
:1002E00001039093DF018093DE012091E0013091C2
:1002F000E1012817390729F09093E1018093E0018B
:10030000B0C08091DC019091DD0101969093DD01F8
:100310008093DC014A970CF4A8C065E271E0CE013D
:1003200001960E947707CE0101960E9406070BC036
:1003300082E00E9401039093DF018093DE0184E656
:1003400090E00E941E042091DE013091DF01809137
:10035000E0019091E1012817390751F30E94A900AB
:100360009093B7018093B601181619060CF06FC070
:100370004AE0BC01CE0101960E94AE07CE01019673
:100380000E94060765E371E0CE0101960E9477079F
:10039000CE0101960E9406076CEB71E0CE0101963A
:1003A0000E947707CE0101960E94060761E471E082
:1003B000CE0101960E947707CE0101960E940607A2
:1003C0004091B2015091B3016091B4017091B501B7
:1003D00020E130E08EEF91E00E9416058091B2019D
:1003E0009091B301A091B401B091B5018D3C9C4CAA
:1003F000AC4CB10531F466E471E08EEF91E00E94FF
:100400009B048091B2019091B301A091B401B0918D
:10041000B501833D9C4CAC4CB10531F463E571E012
:100420008EEF91E00E949B048EEF91E00E94A40465
:1004300061E08DE00E94CA0265E070E080E090E03B
:100440000E94F80360E08DE00E94CA020AC060E6E4
:1004500071E0CE0101960E947707CE0101960E94BD
:1004600006071092DD011092DC0161E070E080E08F
:1004700090E00E94F80327960FB6F894DEBF0FBEF7
:10048000CDBFDF91CF91089584EE91E00C944802A6
:10049000FC018FEF9FEF938382832EE531E035835C
:1004A00024832AE030E03783268321E0208791836C
:1004B00080838CE390E09093070180930601109273
:1004C000ED011092EE011092EF011092F0010895EB
:1004D000833069F028F48130A1F0823011F514C026
:1004E0008630B1F08730C1F08430D9F404C08091F7
:1004F00080008F7703C0809180008F7D8093800083
:10050000089584B58F7702C084B58F7D84BD08952A
:100510008091B0008F7703C08091B0008F7D809371
:10052000B0000895CF93DF9390E0FC01E458FF4FB3
:100530004491FC01E057FF4F8491882341F190E002
:10054000880F991FFC01E854FF4F25913491D90180
:1005500082559F4FFC0185919491C82FD92F9FB749
:10056000F8948C91611106C0409584238C93888106
:10057000842308C0623041F4242F209582238C9379
:100580008881842B888302C0842B8C939FBFDF914A
:10059000CF9108950F931F93CF93DF931F92CDB701
:1005A000DEB7282F30E0F901E859FF4F8491F901B7
:1005B000E458FF4F1491F901E057FF4F04910023D5
:1005C000D1F0882321F069830E9468026981E02FBD
:1005D000F0E0EE0FFF1FE255FF4F85919491DC0193
:1005E0009FB7F8948C91611103C01095812301C0CD
:1005F000812B8C939FBF0F90DF91CF911F910F9113
:100600000895CF93DF93282F30E0F901E859FF4F89
:100610008491F901E458FF4FD491F901E057FF4F5D
:10062000C491CC2389F081110E946802EC2FF0E084
:10063000EE0FFF1FEC55FF4F85919491DC018C91DB
:100640008D2321E030E011F420E030E0C901DF919A
:10065000CF9108951F920F920FB60F9211242F93EE
:100660003F934F935F936F937F938F939F93AF933A
:10067000BF93EF93FF938091F1019091F201892B49
:1006800029F0E091F101F091F2010995FF91EF91CC
:10069000BF91AF919F918F917F916F915F914F919A
:1006A0003F912F910F900FBE0F901F9018951F92A2
:1006B0000F920FB60F9211242F933F934F935F9396
:1006C0006F937F938F939F93AF93BF93EF93FF931A
:1006D0008091F3019091F401892B29F0E091F301CD
:1006E000F091F4010995FF91EF91BF91AF919F9126
:1006F0008F917F916F915F914F913F912F910F90CB
:100700000FBE0F901F9018951F920F920FB60F9269
:1007100011242F933F938F939F93AF93BF93809117
:10072000F5019091F601A091F701B091F801309197
:10073000FD01232F2D5F2D3720F40196A11DB11D42
:1007400005C0232F2A570296A11DB11D2093FD013C
:100750008093F5019093F601A093F701B093F8010F
:100760008091F9019091FA01A091FB01B091FC01F7
:100770000196A11DB11D8093F9019093FA01A093F8
:10078000FB01B093FC01BF91AF919F918F913F917D
:100790002F910F900FBE0F901F9018950F931F93DE
:1007A0009FB7F8940091F9011091FA012091FB0193
:1007B0003091FC0186B5A89B06C08F3F21F00F5FEA
:1007C0001F4F2F4F3F4F9FBF322F212F102F00273A
:1007D000080F111D211D311D42E0000F111F221FA6
:1007E000331F4A95D1F7B801C9011F910F910895A0
:1007F000CF92DF92EF92FF92CF93DF936B017C0158
:100800000E94CE03EB010EC00E94CE036C1B7D0B39
:10081000683E734038F081E0C81AD108E108F10859
:10082000C851DC4FC114D104E104F10469F7DF9130
:10083000CF91FF90EF90DF90CF900895019739F01E
:10084000880F991F880F991F02970197F1F7089554
:10085000789484B5826084BD84B5816084BD85B59B
:10086000826085BD85B5816085BDEEE6F0E0808162
:1008700081608083E1E8F0E0108280818260808383
:10088000808181608083E0E8F0E080818160808306
:10089000E1EBF0E0808184608083E0EBF0E0808138
:1008A00081608083EAE7F0E08081846080838081DA
:1008B0008260808380818160808380818068808382
:1008C0001092C1000895CF92DF92EF92FF920F93A2
:1008D0001F93CF93DF936C01EB017A01E60EF71EB5
:1008E00000E010E00BC06991D601ED91FC91019000
:1008F000F081E02DC6010995080F191FCE15DF05FF
:1009000091F7C801DF91CF911F910F91FF90EF9068
:10091000DF90CF900895DB010D900020E9F7AD0145
:1009200041505109461B570BDC01ED91FC910280AF
:10093000F381E02D09940C948B04DC01ED91FC9182
:100940000190F081E02D09940F931F93CF93DF93D3
:10095000EC016DE00E949D048C016AE0CE010E94D2
:100960009D049C01200F311FC901DF91CF911F9180
:100970000F9108954F925F926F927F929F92AF92E4
:10098000BF92CF92DF92EF92FF920F931F93CF937C
:10099000DF93CDB7DEB7A1970FB6F894DEBF0FBED9
:1009A000CDBF5C016A017B01922E19A281E0821702
:1009B00010F08AE0982E8E010F5D1F4F492C512CAC
:1009C000612C712CC701B601A30192010E94FC07A2
:1009D0008C2D929E80191124015011098A3014F433
:1009E000805D01C0895CF801808369017A01C114CE
:1009F000D104E104F10431F7B801C5010E948B0470
:100A0000A1960FB6F894DEBF0FBECDBFDF91CF9198
:100A10001F910F91FF90EF90DF90CF90BF90AF901C
:100A20009F907F906F905F904F90089521153105B2
:100A300041F4DC01ED91FC910190F081E02D642FF7
:100A400009940C94BA04FC0184859585FC01E05C52
:100A5000FF4F20813181FC01EE5BFF4F808191814E
:100A6000281B390B2F733327C9010895FC01848596
:100A70009585FC01E05CFF4F40815181FC01EE5BFC
:100A8000FF4F208131814217530741F00190F081DF
:100A9000E02DE80FF91F208130E002C02FEF3FEF7B
:100AA000C9010895FC0184859585FC01E05CFF4F38
:100AB00040815181FC01EE5BFF4F20813181421763
:100AC000530781F0A081B181A80FB91F8C912081BB
:100AD00031812F5F3F4F2F73332731832083282F9E
:100AE00030E002C02FEF3FEFC9010895FC01868579
:100AF0009785FC01E05CFF4FDC01AE5BBF4F40819E
:100B000051812D913C91119742175307C1F70895D8
:100B1000CF93DF93FC0186859785DC01A05CBF4FF6
:100B20002D913C9111972F5F3F4F2F733327EC018D
:100B3000CE5BDF4F4881598124173507D9F30D90DB
:100B4000BC91A02DA80FB91F6C93A685B785A05C9A
:100B5000BF4F11963C932E93A689B7892C9181E0C3
:100B600090E0058C02C0880F991F0A94E2F7282BA9
:100B70002C9381E090E0DF91CF91089508951F922A
:100B80000F920FB60F9211242F933F934F938F9391
:100B90009F93EF93FF934091C6008091A1029091A3
:100BA000A20201968F7399272091A3023091A4028B
:100BB0008217930759F0E091A102F091A202EF5938
:100BC000FD4F40839093A2028093A102FF91EF9189
:100BD0009F918F914F913F912F910F900FBE0F904A
:100BE0001F9018958EEF91E00E942305892B11F03C
:100BF0000C94BE0508951F920F920FB60F92112408
:100C00002F933F938F939F93EF93FF9320915D02D8
:100C100030915E0280915F0290916002281739073F
:100C200031F48091C1008F7D8093C10014C0E091A8
:100C30005F02F0916002E35EFD4F208180915F02D0
:100C40009091600201968F73992790936002809330
:100C50005F022093C600FF91EF919F918F913F918A
:100C60002F910F900FBE0F901F901895CF92DF928B
:100C7000EF92FF92CF93DF93EC016A017B01411564
:100C800081EE580761057105F9F0EC89FD8981E075
:100C900090E00E8C02C0880F991F0A94E2F78083BF
:100CA00060E079E08DE390E0A70196010E94FC07E7
:100CB0002150310941095109569547953795279596
:100CC000211580E1380798F0EC89FD89108260E8F1
:100CD00074E88EE190E0A70196010E94FC07215084
:100CE0003109410951095695479537952795E88966
:100CF000F9893083EA89FB892083EE89FF89408165
:100D000081E090E09C010A8C02C0220F331F0A94FC
:100D1000E2F7422B4083EE89FF8940819C010B8CD6
:100D200002C0220F331F0A94E2F7422B4083EE8960
:100D3000FF8940819C010C8C02C0220F331F0A9452
:100D4000E2F7422B4083EE89FF8920810D8C02C09F
:100D5000880F991F0A94E2F7809582238083DF91A0
:100D6000CF91FF90EF90DF90CF9008951092010205
:100D70001092000288EE93E0A0E0B0E080930202BF
:100D800090930302A0930402B093050285EA91E0D8
:100D90009093FF018093FE0181E692E090930B0215
:100DA00080930A028DE192E090930D0280930C02F1
:100DB00085EC90E090930F0280930E0284EC90E01B
:100DC000909311028093100280EC90E090931302B4
:100DD0008093120281EC90E09093150280931402AC
:100DE00086EC90E0909317028093160284E0809343
:100DF000180283E08093190287E080931A0285E04D
:100E000080931B0281E080931C020895FC01808185
:100E100091810C94BF08CF93DF93EC018881998175
:100E2000009711F00E94BF08198218821D821C824F
:100E30001B821A82DF91CF9108950F931F93CF9356
:100E4000DF93EC018B016F5F7F4F888199810E9456
:100E50005B09009731F0998388831B830A8381E0C3
:100E600001C080E0DF91CF911F910F910895CF9342
:100E7000DF93EC0188819981892B31F08A819B81F4
:100E80008617970708F00CC0CE010E941D07882323
:100E900049F08C819D81892B19F4E881F9811082B8
:100EA00081E001C080E0DF91CF910895EF92FF9241
:100EB0000F931F93CF93DF93EC017B018A01BA015B
:100EC0000E943707811104C0CE010E940B0707C0A2
:100ED0001D830C83B701888199810E942C0ACE0161
:100EE000DF91CF911F910F91FF90EF900895DC015A
:100EF00011961C921E9213961C921E921297159692
:100F00001C921E92149716961C926115710559F049
:100F1000DB010D900020E9F7AD0141505109461B5E
:100F2000570B0C9456070895CF93DF93D82FC92FF2
:100F30006115710561F0DB010D900020E9F7AD014D
:100F400041505109461B570B0E94560702C00E9490
:100F50000B078D2F9C2FDF91CF9108950F931F9337
:100F6000CF93DF93CDB7DEB762970FB6F894DEBFAD
:100F70000FBECDBF8C01CB01F8011182108213820C
:100F8000128215821482168250E0BE016F5F7F4F7D
:100F90000E94330ABE016F5F7F4FC8010E94940711
:100FA00062960FB6F894DEBF0FBECDBFDF91CF9132
:100FB0001F910F9108950E9428040E948D00C2EF96
:100FC000D5E00E9464012097E1F30E94F205F9CF79
:100FD000AA1BBB1B51E107C0AA1FBB1FA617B7075F
:100FE00010F0A61BB70B881F991F5A95A9F780957B
:100FF0009095BC01CD010895A1E21A2EAA1BBB1B3E
:10100000FD010DC0AA1FBB1FEE1FFF1FA217B307D4
:10101000E407F50720F0A21BB30BE40BF50B661FEA
:10102000771F881F991F1A9469F7609570958095AE
:1010300090959B01AC01BD01CF010895EE0FFF1FFC
:101040000590F491E02D09940F931F93CF93DF93B4
:101050008230910510F482E090E0E091A702F091D7
:10106000A80220E030E0C0E0D0E023C04081518100
:1010700048175907A8F04817590761F482819381EE
:10108000209719F09B838A832EC09093A8028093A7
:10109000A70229C02115310529F04217530710F086
:1010A000A90102C0BE01DF0102811381EF019A0193
:1010B000F8013097D9F62115310509F1281B390BB4
:1010C0002430310590F412968D919C9113976115FF
:1010D000710521F0FB019383828304C09093A802E1
:1010E0008093A702FD01329644C0FD01E20FF31F79
:1010F00081939193225031092D933C933AC02091D2
:10110000A5023091A602232B41F4209102013091D7
:1011100003013093A6022093A50220910001309193
:1011200001012115310541F42DB73EB7409104016D
:1011300050910501241B350BE091A502F091A60208
:10114000E217F307A0F42E1B3F0B2817390778F09E
:10115000AC014E5F5F4F2417350748F04E0F5F1FFD
:101160005093A6024093A5028193919302C0E0E0C0
:10117000F0E0CF01DF91CF911F910F910895EF9291
:10118000FF920F931F93CF93DF93009709F48EC0C4
:10119000DC01129713961C921E921297E090A70200
:1011A000F090A802E114F10489F42D913C9111977B
:1011B000280F391F8091A5029091A60282179307EC
:1011C00089F5B093A602A093A50270C0E70120E0C4
:1011D00030E001C0EA01CA17DB0738F44A815B81BD
:1011E0009E0141155105B1F722C0AC014250510991
:1011F000FA01D383C28300811181BC01600F711F8A
:101200006C177D0761F468817981600F711F6E5FD3
:101210007F4F718360836A817B8173836283211531
:10122000310529F4B093A802A093A7023FC0F901A9
:10123000B383A283E90149915991C40FD51FAC171B
:10124000BD0771F4DC019E918E91840F951F02966B
:101250009183808312968D919C91139793838283BF
:10126000A0E0B0E002C0D7017C01F7018281938148
:101270000097C9F7C701029620813181820F931F21
:101280002091A5023091A6022817390779F410970A
:1012900029F41092A8021092A70204C013961C927F
:1012A0001E921297F092A602E092A502CDB7DEB789
:1012B000E6E00C942D0DA0E0B0E0E1E6F9E00C943E
:1012C0000B0DEC01009729F4CB010E942408EC01DE
:1012D000B4C0DC01A60FB71FFC013297AE17BF07E1
:1012E00018F4C0E0D0E0A9C00081118106171707EB
:1012F000B0F00530110508F4A0C0C80104978617A6
:10130000970708F49AC002501109061B170B0D939A
:101310001D9371836083CD010E94BF088EC06B0155
:10132000C01AD10A7C01E00EF11EE091A702F091F3
:10133000A80220E030E080E090E048C0EE15FF0514
:10134000D1F580809180540142E0A40EB11CAC1410
:10135000BD0488F17401EC18FD08670122E0C20E9B
:10136000D11C9E012250310945E0C416D10478F009
:101370004281538113965C934E9312971196FC927F
:10138000EE92F901718360833A2F2B2F09C00E5F13
:101390001F4F080D191DD9010D931C933281238114
:1013A000009721F0FC013283238347C03093A702CA
:1013B0002093A80242C0808191812817390708F440
:1013C0009C0152814381CF01E52FF42F309709F022
:1013D000B5CF8091A5029091A6028E159F05F1F4DC
:1013E00026173707D8F480910001909101010097EA
:1013F00041F48DB79EB72091040130910501821B05
:10140000930BA817B90708F06CCFB093A602A0936E
:10141000A502FE013297718360830FC0CB010E9449
:1014200024087C01009709F45CCFA801BE010E944A
:10143000230ACE010E94BF08E701CE01CDB7DEB777
:10144000ECE00C94270DFB01DC0102C001900D9231
:1014500041505040D8F70895FB01DC0101900D92F6
:101460000020E1F70895FB019F01E8944230C4F0A9
:101470004532B4F44A3029F497FB1EF490958195D7
:101480009F4F642F77270E94E807805D8A330CF016
:10149000895D8193CB010097A1F716F45DE251932A
:1014A0001082C9010C946B0CA0E1B0E0EAE5FAE00F
:1014B0000C94130D0F89188D86E08C831A83098391
:1014C0008FEF9FE79E838D83AE01455E5F4F588B04
:1014D0004F87698D7A8DCE0101960E94780AEF813F
:1014E000F885E00FF11F10826096E4E00C942F0D58
:1014F000ACE0B0E0EEE7FAE00C94050D7C016B0186
:101500008A01FC0117821682838181FFC7C188246A
:101510008394912C8C0E9D1EF7019381F60193FD0F
:10152000859193FF81916F01882309F4B3C18532BE
:1015300039F493FD859193FF81916F01853229F4F0
:10154000B70190E00E947B0CE7CF712C312C20E09A
:101550002032A8F48B3261F028F4803251F08332CB
:1015600071F40BC08D3239F0803349F4216028C00A
:101570002260246025C0286023C0206121C027FD8F
:1015800027C0382F30533A3078F426FF06C0FAE0EF
:101590007F9E300D1124732E13C08AE0389E300DCB
:1015A0001124332E20620CC08E3221F426FD72C12C
:1015B000206406C08C3611F4206802C0883641F4DD
:1015C000F60193FD859193FF81916F018111C0CF49
:1015D000982F9554933018F09052933028F40C5F64
:1015E0001F4FFFE3F9830DC0833631F0833771F06D
:1015F000833509F05EC023C0F801808189830E5FC6
:101600001F4F66246394712C540115C02801F2E029
:101610004F0E511CF801A080B18026FF03C0672D3A
:1016200070E002C06FEF7FEFC5012C870E94600C55
:101630003C0182012C856FE7262E222218C028014A
:10164000F2E04F0E511CF801A080B18026FF03C0CC
:10165000672D70E002C06FEF7FEFC5012C870E94FD
:10166000550C3C012C8550E8252E222A820123FCB2
:101670001CC006C0B70180E290E00E947B0C3A9447
:10168000832D90E068167906A8F30FC0F50127FCBA
:10169000859127FE81915F01B70190E00E947B0C4C
:1016A00031103A94F1E06F1A71086114710471F706
:1016B000EEC0843611F0893641F5F80127FF07C0E6
:1016C00060817181828193810C5F1F4F08C06081AE
:1016D0007181882777FD8095982F0E5F1F4F4FE609
:1016E000642E622297FF09C0909580957095619550
:1016F0007F4F8F4F9F4FF0E86F2A2AE030E0A40120
:101700000E94A70CA82EA81844C0853731F43FEEDC
:10171000B32EB2222AE030E024C099EFB92EB222D3
:101720008F36B9F020F4883509F0B4C00DC0803789
:1017300021F0883709F0AEC002C020E1B22AB4FE21
:101740000BC084E0B82A08C024FF09C0E6E0BE2A26
:1017500006C028E030E005C020E130E002C020E112
:1017600032E0F801B7FE07C0608171818281938108
:101770000C5F1F4F06C06081718180E090E00E5FBA
:101780001F4FA4010E94A70CA82EA8188FE7682E4F
:101790006B2066FE0BC0362D3E7FA71450F464FE0E
:1017A0000AC062FC08C0362D3E7E05C0BA2C362D1C
:1017B00003C0BA2C01C0B72C34FF0DC0FE01EA0DE6
:1017C000F11D8081803311F4397E09C032FF06C0DB
:1017D000B394B39404C0832F867809F0B39433FD97
:1017E00014C030FF0FC07A2CB31460F4730C7B1854
:1017F000B32C08C0B70180E290E03C870E947B0CCC
:10180000B3943C85B314B0F304C0B31410F43B1884
:1018100001C0312C34FF12C0B70180E390E03C8757
:101820000E947B0C3C8532FF1EC031FF03C088E55F
:1018300090E002C088E790E0B7010CC0832F867863
:1018400091F031FD02C080E201C08BE237FD8DE2F4
:10185000B70190E00E947B0C06C0B70180E390E0E6
:101860000E947B0C7A94A714C0F3AA94F401EA0DA9
:10187000F11DB701808190E00E947B0CA110F5CF93
:1018800006C0B70180E290E00E947B0C3A943110D0
:10189000F8CF42CEF7012681378102C02FEF3FEF0C
:1018A000C9012C96E2E10C94210DFC0105906150D8
:1018B00070400110D8F7809590958E0F9F1F089566
:1018C000FC016150704001900110D8F7809590950F
:1018D0008E0F9F1F0895DC01FC01672F7191772304
:1018E000E1F7329704C07C916D9370836291AE17DB
:1018F000BF07C8F308950F931F93CF93DF938C0115
:10190000EB018B8181FD03C00FEF1FEF1AC082FF37
:101910000DC02E813F818C819D812817390764F489
:10192000E881F9810193F983E88306C0E885F985A8
:10193000802F0995892B41F78E819F8101969F8386
:101940008E83C801DF91CF911F910F910895FA0105
:10195000AA27283051F1203181F1E8946F936E7FEE
:101960006E5F7F4F8F4F9F4FAF4FB1E03ED0B4E0DF
:101970003CD0670F781F891F9A1FA11D680F791F20
:101980008A1F911DA11D6A0F711D811D911DA11D31
:1019900020D009F468943F912AE0269F1124301941
:1019A000305D3193DEF6CF010895462F4770405DDC
:1019B0004193B3E00FD0C9F7F6CF462F4F70405D8B
:1019C0004A3318F0495D31FD4052419302D0A9F7E6
:1019D000EACFB4E0A6959795879577956795BA95E0
:1019E000C9F700976105710508959B01AC010A2EA6
:1019F00006945795479537952795BA95C9F7620F7D
:101A0000731F841F951FA01D08952F923F924F9220
:101A10005F926F927F928F929F92AF92BF92CF927E
:101A2000DF92EF92FF920F931F93CF93DF93CDB787
:101A3000DEB7CA1BDB0B0FB6F894DEBF0FBECDBFFF
:101A400009942A88398848885F846E847D848C84D0
:101A50009B84AA84B984C884DF80EE80FD800C81D9
:101A60001B81AA81B981CE0FD11D0FB6F894DEBFBC
:0C1A70000FBECDBFED010895F894FFCF2C
:101A7C000000A90220003C000A496E6974203A203B
:101A8C005374617274206465636F64696E670A00D5
:101A9C002573256400466F756E6420486561646526
:101AAC0072203A2000206269747320776F72640A86
:101ABC0000203D3E200020444F4F522053454354BC
:101ACC00494F0020444F4F5220504F5254414C002C
:101ADC004E6F6973652E2E2E0A0053657420757037
:101AEC002000556E6B6E6F776E20656E636F646948
:101AFC006E670052656365697665642000202F204F
:101B0C0000626974200050726F746F636F6C3A20BE
:101B1C000000000000880563042305520536057695
:021B2C000500B2
:00000001FF
