:100000000C949E000C94C6000C94C6000C94C60080
:100010000C94C6000C94C6000C94C6000C94C60048
:100020000C94C6000C94C6000C94C6000C94C60038
:100030000C94C6000C94C6000C94C6000C94C60028
:100040000C94C0030C94C6000C9459050C949505AF
:100050000C94C6000C94C6000C94C6000C94C60008
:100060000C94C6000C94C6007E306D79335B5F70D3
:100070007F7B771F0D3D4F47000000000000000010
:100080000000000000000000000000000000000070
:1000900000000000800180007E306D79335B5F706E
:1000A0007F7B00000000000000771F0D3D4F4700E0
:1000B000370000000E000000670000000000000094
:1000C000000000000000000800771F0D3D4F4700B2
:1000D000370000000E00151D670000000000000042
:1000E0000000000000000000000000070002010006
:1000F00000030406000000000000000001020408E4
:100100001020408001020408102001020408102081
:1001100004040404040404040202020202020303AD
:100120000303030300000000250028002B0000004B
:100130000000240027002A005D01500611241FBE84
:10014000CFEFD8E0DEBFCDBF11E0A0E0B1E0EEEA36
:10015000FDE002C005900D92A431B107D9F712E07D
:10016000A4E1B1E001C01D92AC31B107E1F711E0AB
:10017000CCE3D1E004C02297FE010E94D106C8332F
:10018000D107C9F70E94A0060C94D5060C94000074
:1001900040E060E070E084E191E00E944F0248E0BE
:1001A00050E060E070E084E191E00E942B0260E0AA
:1001B00070E084E191E00E94F50140E855E260E0E2
:1001C00070E085E791E00C94D0050F93CF93DF9317
:1001D000C0E000E02C2F47E050E060E070E084E1F8
:1001E00091E00E94CB01DC2FDF5F2D2F46E050E035
:1001F00060E070E084E191E00E94CB012C2F2E5F43
:1002000045E050E060E070E084E191E00E94CB01C5
:100210002C2F2D5F44E050E060E070E084E191E03D
:100220000E94CB012C2F2C5F43E050E060E070E097
:1002300084E191E00E94CB012C2F2B5F42E050E043
:1002400060E070E084E191E00E94CB012C2F2A5FF6
:1002500041E050E060E070E084E191E00E94CB0179
:100260002C2F295F40E050E060E070E084E191E0F5
:100270000E94CB0160910001709101018091020107
:10028000909103010E943404CD2FD03109F0A1CF09
:1002900060E070E084E191E00E94F501609100016E
:1002A000709101018091020190910301DF91CF9142
:1002B0000F910C9434040C94E5000F931F9301E00C
:1002C00010E02AE030E04BE050E06CE070E084E1C8
:1002D00091E00E9462021F910F910895AF92BF9228
:1002E000CF92DF92EF92FF920F931F93CF93DF9302
:1002F00000D0CDB7DEB78C0149832A83660F771F04
:10030000F801EA5AFF4FE080F180EE0CFF1CF80183
:1003100001C01192CF01801B910B8E159F05CCF36C
:100320008981F801E60FF71F81838A818083F801B4
:10033000EC5AFF4F60E080810E948903680182E5EA
:10034000C80ED11C5801E0E5AE0EB11C0EC0EE0D7A
:10035000FF1D3197208141E0F6016081F501808128
:100360000E94E802F1E0EF1AF108F8011E141F04E0
:1003700074F3EC5AFF4F61E080810F900F90DF9192
:10038000CF911F910F91FF90EF90DF90CF90BF9092
:10039000AF900C9489030F9377FD25C0DC01AA5A16
:1003A000BF4F0D90BC91A02D6A177B07E4F4483035
:1003B0005105C8F42031B8F4DB01E3E0AA0FBB1FFC
:1003C000EA95E1F7E22FF0E0E859FF4F249101119F
:1003D0002068A80FB91FA40FB51F50962C934F5F2C
:1003E0000F910C946E010F910895CF92DF92EF92CE
:1003F000FF920F931F93CF93DF937C018B0177FDC7
:1004000021C0FC01EA5AFF4F80819181681779076A
:10041000CCF46B0183E0CC0CDD1C8A95E1F7C0E0E5
:10042000D0E0CE0CDF1CF601EC0FFD1F108A4C2F24
:100430004F5F20E0B801C7010E946E012196C830CD
:10044000D10589F7DF91CF911F910F91FF90EF9028
:10045000DF90CF90089577FD0FC0FC01EA5AFF4F5F
:1004600020813181621773073CF44031510520F43B
:10047000242F4AE00C946E01089577FD0FC0FC0113
:10048000EA5AFF4F20813181621773073CF44830EC
:10049000510520F4242F4BE00C946E01089577FD54
:1004A00010C0FC01EA5AFF4F2081318162177307A7
:1004B00044F4442311F020E001C021E04CE00C940E
:1004C0006E010895AF92BF92DF92EF92FF920F9369
:1004D0001F93CF93DF931F92CDB7DEB75C01D62E6B
:1004E000FC01E05BFF4F608371837C0182E5E80ED5
:1004F000F11CD7014D935C93F501EC5AFF4F31830A
:100500002083C8010197089710F008E010E0F5017A
:10051000EA5AFF4F1183008361E08D2D79830E9499
:10052000510361E0F70180810E94510385010C5A5B
:100530001F4F61E0D8018C910E94510361E0F801E6
:1005400080810E948903F501E05BFF4FD0827981B1
:10055000718380E090E0F501E80FF91F108A0196A1
:1005600080349105C1F700E010E07501F6E5EF0E6B
:10057000F11C1DC020E04FE0B801C5010E946E01D2
:1005800047E050E0B801C5010E943D0220E049E08B
:10059000B801C5010E946E01B801C5010E94F501B4
:1005A00041E0B801C5010E944F020F5F1F4FD70104
:1005B0008D919C9108171907ECF20F90DF91CF9164
:1005C0001F910F91FF90EF90DF90BF90AF90089533
:1005D000BF92CF92DF92EF92FF920F931F93CF9330
:1005E000DF93C82ED62EB42EC7E0D0E0022F10E045
:1005F00087E0E82EF12CB1100AC0F701EC1BFD0BCF
:10060000B80102C075956795EA95E2F707C0B80191
:100610000C2E02C0759567950A94E2F761707727F2
:100620008C2D0E94890361E08D2D0E94890360E07A
:100630008D2D0E9489032197F0F6DF91CF911F91B4
:100640000F91FF90EF90DF90CF90BF90089583308F
:1006500069F028F48130A1F0823011F514C08630A1
:10066000B1F08730C1F08430D9F404C080918000AB
:100670008F7703C0809180008F7D809380000895E4
:1006800084B58F7702C084B58F7D84BD0895809135
:10069000B0008F7703C08091B0008F7D8093B00051
:1006A0000895CF93DF9390E0FC01E450FF4F449115
:1006B000FC01E05FFE4F8491882341F190E0880FB8
:1006C000991FFC01E25DFE4F25913491D9018C5DAB
:1006D0009E4FFC0185919491C82FD92F9FB7F89414
:1006E0008C91611106C0409584238C93888184236A
:1006F00008C0623041F4242F209582238C93888196
:10070000842B888302C0842B8C939FBFDF91CF9171
:1007100008950F931F93CF93DF931F92CDB7DEB74A
:10072000282F30E0F901E851FF4F8491F901E4509E
:10073000FF4F1491F901E05FFE4F04910023D1F0C7
:10074000882321F069830E9427036981E02FF0E06C
:10075000EE0FFF1FEC5DFE4F85919491DC019FB77A
:10076000F8948C91611103C01095812301C0812BF5
:100770008C939FBF0F90DF91CF911F910F910895A0
:100780001F920F920FB60F9211242F933F938F93C6
:100790009F93AF93BF9380916C0190916D01A09155
:1007A0006E01B0916F0130917401232F2D5F2D37B1
:1007B00020F40196A11DB11D05C0232F2A570296D2
:1007C000A11DB11D2093740180936C0190936D0164
:1007D000A0936E01B0936F018091700190917101AF
:1007E000A0917201B09173010196A11DB11D80937A
:1007F000700190937101A0937201B0937301BF9146
:10080000AF919F918F913F912F910F900FBE0F90BD
:100810001F9018950F931F939FB7F8940091700144
:1008200010917101209172013091730186B5A89BDE
:1008300006C08F3F21F00F5F1F4F2F4F3F4F9FBFCD
:10084000322F212F102F0027080F111D211D311DC0
:1008500042E0000F111F221F331F4A95D1F7B80144
:10086000C9011F910F910895CF92DF92EF92FF92ED
:10087000CF93DF936B017C010E940A04EB010EC051
:100880000E940A046C1B7D0B683E734038F081E0C7
:10089000C81AD108E108F108C851DC4FC114D104CD
:1008A000E104F10469F7DF91CF91FF90EF90DF90C1
:1008B000CF900895789484B5826084BD84B58160BA
:1008C00084BD85B5826085BD85B5816085BDEEE658
:1008D000F0E0808181608083E1E8F0E01082808137
:1008E00082608083808181608083E0E8F0E08081A5
:1008F00081608083E1EBF0E0808184608083E0EBC5
:10090000F0E0808181608083EAE7F0E080818460AC
:100910008083808182608083808181608083808108
:10092000806880831092C1000895CF92DF92EF9289
:10093000FF920F931F93CF93DF936C01EB017A012A
:10094000E60EF71E00E010E00BC06991D601ED91B4
:10095000FC910190F081E02DC6010995080F191F47
:10096000CE15DF0591F7C801DF91CF911F910F914F
:10097000FF90EF90DF90CF900895FC0184859585DE
:10098000FC01E05CFF4F20813181FC01EE5BFF4FF9
:1009900080819181281B390B2F733327C90108955A
:1009A000FC0184859585FC01E05CFF4F408151810D
:1009B000FC01EE5BFF4F208131814217530741F06C
:1009C0000190F081E02DE80FF91F208130E002C096
:1009D0002FEF3FEFC9010895FC0184859585FC0147
:1009E000E05CFF4F40815181FC01EE5BFF4F2081B5
:1009F00031814217530781F0A081B181A80FB91F3F
:100A00008C91208131812F5F3F4F2F7333273183AA
:100A10002083282F30E002C02FEF3FEFC901089557
:100A2000FC0186859785FC01E05CFF4FDC01AE5B35
:100A3000BF4F408151812D913C911197421753072F
:100A4000C1F70895CF93DF93FC0186859785DC017C
:100A5000A05CBF4F2D913C9111972F5F3F4F2F739B
:100A60003327EC01CE5BDF4F4881598124173507CE
:100A7000D9F30D90BC91A02DA80FB91F6C93A6853A
:100A8000B785A05CBF4F11963C932E93A689B7897A
:100A90002C9181E090E0058C02C0880F991F0A9488
:100AA000E2F7282B2C9381E090E0DF91CF9108951D
:100AB00008951F920F920FB60F9211242F933F9318
:100AC0004F938F939F93EF93FF934091C600809134
:100AD00018029091190201968F73992720911A029A
:100AE00030911B028217930759F0E0911802F091A0
:100AF0001902E852FE4F4083909319028093180226
:100B0000FF91EF919F918F914F913F912F910F9076
:100B10000FBE0F901F90189585E791E00E94BD04CD
:100B2000892B11F00C94580508951F920F920FB65F
:100B30000F9211242F933F938F939F93EF93FF93E3
:100B40002091D4013091D5018091D6019091D701A7
:100B50002817390731F48091C1008F7D8093C1003F
:100B600014C0E091D601F091D701EC56FE4F2081E0
:100B70008091D6019091D70101968F739927909318
:100B8000D7018093D6012093C600FF91EF919F91EA
:100B90008F913F912F910F900FBE0F901F9018953E
:100BA000CF92DF92EF92FF92CF93DF93EC016A0135
:100BB0007B01411581EE580761057105F9F0EC895B
:100BC000FD8981E090E00E8C02C0880F991F0A9485
:100BD000E2F7808360E079E08DE390E0A701960181
:100BE0000E94AD062150310941095109569547959A
:100BF00037952795211580E1380798F0EC89FD8914
:100C0000108260E874E88EE190E0A70196010E94EE
:100C1000AD0621503109410951095695479537953F
:100C20002795E889F9893083EA89FB892083EE8951
:100C3000FF89408181E090E09C010A8C02C0220F74
:100C4000331F0A94E2F7422B4083EE89FF894081EB
:100C50009C010B8C02C0220F331F0A94E2F7422B37
:100C60004083EE89FF8940819C010C8C02C0220FD9
:100C7000331F0A94E2F7422B4083EE89FF892081DB
:100C80000D8C02C0880F991F0A94E2F78095822389
:100C90008083DF91CF91FF90EF90DF90CF90089508
:100CA000109278011092770188EE93E0A0E0B0E016
:100CB0008093790190937A01A0937B01B0937C019A
:100CC00088E091E0909376018093750188ED91E042
:100CD000909382018093810184E991E09093840153
:100CE0008093830185EC90E0909386018093850149
:100CF00084EC90E0909388018093870180EC90E0F1
:100D000090938A018093890181EC90E090938C010B
:100D100080938B0186EC90E090938E0180938D01FF
:100D200084E080938F0183E08093900187E080933B
:100D3000910185E08093920181E080939301089571
:100D40000E945A040E94C800CCE8D5E00E945B01D2
:100D50002097E1F30E948C05F9CFA1E21A2EAA1B7D
:100D6000BB1BFD010DC0AA1FBB1FEE1FFF1FA2175B
:100D7000B307E407F50720F0A21BB30BE40BF50B58
:100D8000661F771F881F991F1A9469F760957095E1
:100D9000809590959B01AC01BD01CF010895EE0FA8
:0E0DA000FF1F0590F491E02D0994F894FFCF09
:100DAE00FA0000000000000022059504BD04EC04CA
:040DBE00D004100548
:00000001FF
