:100000000C945E000C9486000C9486000C94860080
:100010000C9486000C9486000C9486000C94860048
:100020000C9486000C9486000C9486000C940001BD
:100030000C9486000C9486000C9486000C94860028
:100040000C942D030C9486000C94B4050C94F005CC
:100050000C9486000C9486000C9486000C94860008
:100060000C9486000C94860000000007000201003A
:100070000003040600000000000000000102040864
:100080001020408001020408102001020408102002
:10009000040404040404040402020202020203032E
:1000A0000303030300000000250028002B000000CC
:1000B0000000240027002A00FC00AB0611241FBE0C
:1000C000CFEFD8E0DEBFCDBF11E0A0E0B1E0ECE7BC
:1000D000FEE002C005900D92A031B107D9F711E002
:1000E000A0E1B1E001C01D92A93EB107E1F710E027
:1000F000CCEBD0E004C02297FE010E943807C83B39
:10010000D107C9F70E94FB060C943C070C94000031
:1001100068E070E080E191E00E945B0240E855E217
:1001200060E070E082E491E00C942B064AE050E03D
:100130006CED75E082E491E00E94FE046CED75E0E8
:1001400080E191E00E94610260ED77E080E090E064
:100150000E94A1034AE050E064EF71E082E491E084
:100160000E94FE0464EF71E080E191E00E94610270
:1001700060ED77E080E090E00E94A1034AE050E06B
:1001800060ED77E082E491E00E94FE0460ED77E0AC
:1001900080E191E00E94610260ED77E080E090E014
:1001A0000E94A1034AE050E064EF71E082E491E034
:1001B0000E94FE0464EF71E080E191E00E94610220
:1001C00060ED77E080E090E00E94A1034AE050E01B
:1001D0006CED75E082E491E00E94FE046CED75E048
:1001E00080E191E00E94610260ED77E080E090E0C4
:1001F0000C94A1030C94960080E191E00C94BE0154
:100200001F920F920FB60F9211242F933F934F938B
:100210005F936F937F938F939F93AF93BF93EF936E
:10022000FF938091140187FF05C010928500109202
:1002300084001AC020911401332727FD3095809146
:10024000130190E0281739077CF480911401992755
:1002500087FD9095FC01EE0FFF1FE80FF91FEB5E85
:10026000FE4F808186FD37C0809114018F5F80939F
:10027000140120911401332727FD3095809113013B
:1002800090E028173907CCF5809114018C30F4F1F7
:1002900034C080911401992787FD9095FC01EE0FE1
:1002A000FF1FE80FF91FEB5EFE4F808161E08F7347
:1002B0000E94F60252C080E49CE905C0809184004F
:1002C00090918500049690938900809388008FEF29
:1002D0008093140142C080911401992787FD909565
:1002E000FC01EE0FFF1FE80FF91FEB5EFE4F808150
:1002F00060E08F730E94F602B7CF809184009091E6
:100300008500049680349C49B0F2D8CF8091840057
:100310009091850020911401332727FD3095F90134
:10032000EE0FFF1FE20FF31FEB5EFE4F21813281C4
:10033000820F931F9093890080938800809114010D
:10034000992787FD9095FC01EE0FFF1FE80FF91F1D
:10035000EB5EFE4F808186FD9CCFFF91EF91BF91B8
:10036000AF919F918F917F916F915F914F913F914D
:100370002F910F900FBE0F901F9018952091130191
:100380002C30A0F4FC012083822F8F5F8093130117
:10039000822F90E0FC01EE0FFF1FE80FF91FEB5ECC
:1003A000FE4F88EB9BE09283818308952FEFFC0141
:1003B00020830895DF92EF92FF920F931F93CF93C4
:1003C000DF93EC01D62E7A01890188818C3008F008
:1003D00065C061E08D2D0E94BE028881A82FB0E02B
:1003E000FD01EE0FFF1FEA0FFB1FEB5EFE4F2D2DF1
:1003F0002F739081907C922B908360E272E06E1953
:100400007F0977FF02C06D5F7F4F75956795759582
:100410006795698340E659E0401B510B57FF02C0C6
:100420004D5F5F4F55954795559547954A836CE0CD
:100430000E9408079CE0899FB001112420E030E071
:10044000A901460F571FFA01EE0FFF1FE40FF51F1A
:10045000EB5EFE4F908196FD15C02F5F3F4F2C3015
:10046000310571F71DC01092800082E080938100F9
:100470001092850010928400B19A80916F00826082
:1004800080936F00888190E0FC01EE0FFF1FE80F62
:10049000F91FEB5EFE4F808180648083888103C0FA
:1004A000882309F3EFCFDF91CF911F910F91FF9038
:1004B000EF90DF90089520E639E040E252E00C949E
:1004C000DA01FC0180818C3070F5918128E830E000
:1004D000291B310997FD3395220F331F220F331F3C
:1004E000621773077CF0928128E532E0291B3109FD
:1004F00097FD3395220F331F220F331F62177307A7
:100500000CF49B014FB7F89490E0FC01EE0FFF1F35
:10051000E80FF91FEB5EFE4F22503109220F331F07
:10052000328321834FBF0895833069F028F48130EE
:10053000A1F0823011F514C08630B1F08730C1F0DF
:100540008430D9F404C0809180008F7703C08091FB
:1005500080008F7D80938000089584B58F7702C0DE
:1005600084B58F7D84BD08958091B0008F7703C0DE
:100570008091B0008F7D8093B0000895CF93DF937A
:1005800090E0FC01E458FF4F4491FC01E057FF4F1D
:100590008491882341F190E0880F991FFC01E25576
:1005A000FF4F25913491D9018C559F4FFC018591C6
:1005B0009491C82FD92F9FB7F8948C91611106C0E0
:1005C000409584238C938881842308C0623041F451
:1005D000242F209582238C938881842B888302C0CA
:1005E000842B8C939FBFDF91CF9108950F931F931E
:1005F000CF93DF931F92CDB7DEB7282F30E0F901FC
:10060000E859FF4F8491F901E458FF4F1491F90123
:10061000E057FF4F04910023D1F0882321F0698334
:100620000E9494026981E02FF0E0EE0FFF1FEC556D
:10063000FF4F85919491DC019FB7F8948C916111E3
:1006400003C01095812301C0812B8C939FBF0F9015
:10065000DF91CF911F910F9108951F920F920FB6C6
:100660000F9211242F933F938F939F93AF93BF9338
:100670008091390190913A01A0913B01B0913C01E8
:1006800030914101232F2D5F2D3720F40196A11DBC
:10069000B11D05C0232F2A570296A11DB11D20931D
:1006A00041018093390190933A01A0933B01B093AB
:1006B0003C0180913D0190913E01A0913F01B0919C
:1006C00040010196A11DB11D80933D0190933E0113
:1006D000A0933F01B0934001BF91AF919F918F9143
:1006E0003F912F910F900FBE0F901F9018950F9371
:1006F0001F939FB7F89400913D0110913E01209106
:100700003F013091400186B5A89B06C08F3F21F084
:100710000F5F1F4F2F4F3F4F9FBF322F212F102FA3
:100720000027080F111D211D311D42E0000F111F70
:10073000221F331F4A95D1F7B801C9011F910F91AC
:100740000895CF92DF92EF92FF92CF93DF936B01E8
:100750007C010E947703EB010EC00E9477036C1BA3
:100760007D0B683E734038F081E0C81AD108E1087B
:10077000F108C851DC4FC114D104E104F10469F758
:10078000DF91CF91FF90EF90DF90CF900895789414
:1007900084B5826084BD84B5816084BD85B5826086
:1007A00085BD85B5816085BDEEE6F0E08081816024
:1007B0008083E1E8F0E01082808182608083808124
:1007C00081608083E0E8F0E0808181608083E1EBFC
:1007D000F0E0808184608083E0EBF0E080818160E4
:1007E0008083EAE7F0E0808184608083808182609A
:1007F0008083808181608083808180688083109283
:10080000C1000895CF92DF92EF92FF920F931F9352
:10081000CF93DF936C01EB017A01E60EF71E00E047
:1008200010E00BC06991D601ED91FC910190F0812F
:10083000E02DC6010995080F191FCE15DF0591F7A8
:10084000C801DF91CF911F910F91FF90EF90DF9042
:10085000CF900895DB010D900020E9F7AD014150E4
:100860005109461B570BDC01ED91FC910280F3818D
:10087000E02D0994DC01ED91FC910190F081E02DD7
:1008800009940F931F93CF93DF93EC016DE00E94C7
:100890003A048C016AE0CE010E943A049C01200FC8
:1008A000311FC901DF91CF911F910F9108954F9290
:1008B0005F926F927F929F92AF92BF92CF92DF92A0
:1008C000EF92FF920F931F93CF93DF93CDB7DEB7D5
:1008D000A1970FB6F894DEBF0FBECDBF5C016A01D1
:1008E0007B01922E19A281E0821710F08AE0982EE7
:1008F0008E010F5D1F4F492C512C612C712CC701AB
:10090000B601A30192010E9414078C2D929E8019BA
:100910001124015011098A3014F4805D01C0895CF2
:10092000F801808369017A01C114D104E104F10462
:1009300031F7B801C5010E942A04A1960FB6F894B8
:10094000DEBF0FBECDBFDF91CF911F910F91FF9002
:10095000EF90DF90CF90BF90AF909F907F906F907F
:100960005F904F900895CF92DF92EF92FF920F9396
:100970001F93CF93DF93EC016A017B0121153105B1
:1009800079F4E881F9810190F081E02D642FDF9105
:10099000CF911F910F91FF90EF90DF90CF9009942E
:1009A0002A30310519F477FD0EC02AE0B701A601FF
:1009B000CE01DF91CF911F910F91FF90EF90DF90CB
:1009C000CF900C9457046DE20E943A048C014427A6
:1009D0005527BA014C195D096E097F092AE0CE013D
:1009E0000E945704080F191FC801DF91CF911F9172
:1009F0000F91FF90EF90DF90CF9008950F931F938A
:100A0000CF93DF93EC019A01AB01662757FD609508
:100A1000762F0E94B3048C01CE010E9441049801FC
:100A2000280F391FC901DF91CF911F910F910895B0
:100A3000FC0184859585FC01E05CFF4F20813181BC
:100A4000FC01EE5BFF4F80819181281B390B2F73D6
:100A50003327C9010895FC0184859585FC01E05C7C
:100A6000FF4F40815181FC01EE5BFF4F20813181BE
:100A70004217530741F00190F081E02DE80FF91F74
:100A8000208130E002C02FEF3FEFC9010895FC0143
:100A900084859585FC01E05CFF4F40815181FC011C
:100AA000EE5BFF4F208131814217530781F0A08117
:100AB000B181A80FB91F8C91208131812F5F3F4FE9
:100AC0002F73332731832083282F30E002C02FEF8C
:100AD0003FEFC9010895FC0186859785FC01E05C24
:100AE000FF4FDC01AE5BBF4F408151812D913C91A6
:100AF000119742175307C1F70895CF93DF93FC0175
:100B000086859785DC01A05CBF4F2D913C911197A4
:100B10002F5F3F4F2F733327EC01CE5BDF4F4881B0
:100B2000598124173507D9F30D90BC91A02DA80F3A
:100B3000B91F6C93A685B785A05CBF4F11963C93F7
:100B40002E93A689B7892C9181E090E0058C02C094
:100B5000880F991F0A94E2F7282B2C9381E090E0EC
:100B6000DF91CF91089508951F920F920FB60F92C3
:100B700011242F933F934F938F939F93EF93FF9362
:100B80004091C6008091E5019091E60101968F7336
:100B900099272091E7013091E8018217930759F0D6
:100BA000E091E501F091E601EB55FE4F4083909313
:100BB000E6018093E501FF91EF919F918F914F9115
:100BC0003F912F910F900FBE0F901F90189582E4C8
:100BD00091E00E941805892B11F00C94B30508953B
:100BE0001F920F920FB60F9211242F933F938F9362
:100BF0009F93EF93FF932091A1013091A2018091E7
:100C0000A3019091A4012817390731F48091C10004
:100C10008F7D8093C10014C0E091A301F091A401E5
:100C2000EF59FE4F20818091A3019091A40101967C
:100C30008F7399279093A4018093A3012093C600FA
:100C4000FF91EF919F918F913F912F910F900FBE48
:100C50000F901F901895CF92DF92EF92FF92CF9353
:100C6000DF93EC016A017B01411581EE58076105B4
:100C70007105F9F0EC89FD8981E090E00E8C02C0ED
:100C8000880F991F0A94E2F7808360E079E08DE392
:100C900090E0A70196010E941407215031094109F3
:100CA00051095695479537952795211580E13807C5
:100CB00098F0EC89FD89108260E874E88EE190E09C
:100CC000A70196010E9414072150310941095109D9
:100CD0005695479537952795E889F9893083EA89AC
:100CE000FB892083EE89FF89408181E090E09C01AF
:100CF0000A8C02C0220F331F0A94E2F7422B408372
:100D0000EE89FF8940819C010B8C02C0220F331FAA
:100D10000A94E2F7422B4083EE89FF8940819C01CF
:100D20000C8C02C0220F331F0A94E2F7422B40833F
:100D3000EE89FF8920810D8C02C0880F991F0A94CB
:100D4000E2F7809582238083DF91CF91FF90EF902F
:100D5000DF90CF900895109245011092440188EEE3
:100D600093E0A0E0B0E08093460190934701A09308
:100D70004801B093490184E091E09093430180934E
:100D8000420185EA91E090934F0180934E0181E604
:100D900091E0909351018093500185EC90E0909305
:100DA00053018093520184EC90E09093550180931D
:100DB000540180EC90E0909357018093560181ECB0
:100DC00090E0909359018093580186EC90E09093C5
:100DD0005B0180935A0184E080935C0183E08093FF
:100DE0005D0187E080935E0185E080935F0181E093
:100DF0008093600108950E94C7030E948800C7EE97
:100E0000D5E00E94FA002097E1F30E94E705F9CFB0
:100E1000991B79E004C0991F961708F0961B881F4C
:100E20007A95C9F780950895A1E21A2EAA1BBB1BDB
:100E3000FD010DC0AA1FBB1FEE1FFF1FA217B307A6
:100E4000E407F50720F0A21BB30BE40BF50B661FBC
:100E5000771F881F991F1A9469F760957095809580
:100E600090959B01AC01BD01CF010895EE0FFF1FCE
:0C0E70000590F491E02D0994F894FFCF58
:100E7C00000000007D050204180547052B056B05D5
:00000001FF
