:100000000C9462000C948A000C948A000C948A0070
:100010000C948A000C948A000C948A000C948A0038
:100020000C948A000C948A000C948A000C9413039C
:100030000C948A000C948A000C948A000C948A0018
:100040000C945A040C948A000C9434060C94700698
:100050000C948A000C948A000C948A000C948A00F8
:100060000C948A000C948A00000000070002010032
:100070000003040600000000000000000102040864
:100080001020408001020408102001020408102002
:10009000040404040404040402020202020203032E
:1000A00003030303000000002300260029000000D2
:1000B0000000250028002B0000000000240027007D
:1000C0002A002B0711241FBECFEFD8E0DEBFCDBF23
:1000D00011E0A0E0B1E0E8E7F2E102C005900D9286
:1000E000A238B107D9F712E0A2E8B1E001C01D9231
:1000F000A636B107E1F710E0C4ECD0E004C02297C7
:10010000FE010E943609C23CD107C9F70E947B0755
:100110000C943A090C94000040E855E260E070E06D
:100120008FEB91E00E94AB0665E571E08FEB91E00B
:100130000E94840581E00E94E00080ED97E00C942D
:10014000860161E08DE00E94FA0365E08BE591E0B5
:100150000E9473020E946E0260E08DE00E94FA032A
:1001600068EC70E080E090E00C94CE04682780E1B9
:10017000689F90011124622770E0362F2227492FB3
:1001800050E0242B352BCB01F4E095958795FA951B
:10019000E1F728273927A3E0660F771FAA95E1F733
:1001A00026273727C9010895982FE1E6F1E080E07E
:1001B0002191921721F08F5F8031D1F780E008956F
:1001C0008093850108951F93CF93DF9390918601CB
:1001D000992329F0809187018F5F80938701209177
:1001E000880180918901921759F0803510F42BE035
:1001F00001C02DE1820F809389019093880103C093
:100200008C5E8093890120918901203A08F47AC09C
:1002100080918A0190918B019695879590938B019F
:1002200080938A0130918701353028F0986090934F
:100230008B0180938A01205A2093890110928701B3
:1002400080918C01882309F44DC080918D018F5FCE
:1002500080938D018C3008F455C0C0918A01D091F3
:100260008B018C2F8F730E94D400182FCE01C6E013
:1002700096958795CA95E1F70E94D40090E1199F61
:1002800090011124822B9091820191110EC08093D4
:100290008E01982F94509B3140F010928C018091E8
:1002A0008F018F5F80938F012DC090918201E92F84
:1002B000F0E0E057FE4F80839F5F90938201909122
:1002C000820180918E01981750F010928C018091DC
:1002D000AE018F5F8093AE0181E080938301109225
:1002E0008D0110C080918A0190918B0188339B40D1
:1002F00049F481E080938C0110928D01109282016B
:1003000010928301DF91CF911F910895BF92CF92F8
:10031000DF92EF92FF920F931F93CF93DF93CDB7AE
:10032000DEB72E970FB6F894DEBF0FBECDBFBC016F
:100330008EE0E7E4F1E0DE01119601900D928A95DE
:10034000E1F76115710509F498C080E090E00E9422
:1003500021089B01AC0160E070E080E89FE30E940F
:10036000880720E030E040E05EE30E94AF08E62E20
:10037000D72EC82EB92E8E010D5F1F4FFF24F39488
:10038000F801619171918F0180E090E00E94210855
:100390009B01AC0160E074E284E79BE40E94880763
:1003A0009B01AC0160E070E080E89FE30E94880759
:1003B0009B01AC016E2D7D2D8C2D9B2D0E948807FD
:1003C0000E94F007AB01BC01423051056105710587
:1003D00030F04F3FFFEF5F076105710550F0F39478
:1003E00087E0F812CDCF423051056105710530F438
:1003F00044C0E6E0FE1609F440C006C041155105B0
:10040000F1E06F077105C8F5FF20B9F11092800087
:1004100088E080938100809181008F298093810002
:10042000509389004093880080916F008260809390
:100430006F0061E0809100010E94C20360E0809142
:1004400001010E94C20361E0809102010E94C20387
:1004500060918501809102012E960FB6F894DEBF5F
:100460000FBECDBFDF91CF911F910F91FF90EF9005
:10047000DF90CF90BF900C94FA032E960FB6F894AD
:10048000DEBF0FBECDBFDF91CF911F910F91FF90C7
:10049000EF90DF90CF90BF900895CF931092AF016F
:1004A0001092B0011092B10160918501C1E06C27FA
:1004B000809102010E94FA03C0938401CF910895B4
:1004C00060918501809102010E94FA0360E08091B1
:1004D00000010E94FA031092840108958091840122
:1004E0008111FCCF0895BF92CF92DF92EF92FF92DD
:1004F0000F931F93CF93DF93C82EF92ED62E2BE1A7
:10050000261708F485C0C62FCD5F0E946E026C2F9F
:100510008FEF9FEF0E94B600AC2FB0E044E0B5959E
:10052000A7954A95E1F7AF59BE4F2C9120930B0147
:10053000CF70EC2FF0E0EF59FE4F208120930C019B
:100540000BE011E0CC2DDF2D1AC07E01B9906B2D90
:100550000E94B600AB2DB0E034E0B595A7953A9572
:10056000E1F7AF59BE4F2C91F8012083D701EC91F0
:10057000EF70F0E0EF59FE4F2081F80121830E5F0C
:100580001F4F2C2F2C192D1500F36D2D6F5F660F4B
:1005900080959095E62FF0E0E55FFE4FDC0114E0DA
:1005A000B695A7951A95E1F7AF70BB27AF59BE4F27
:1005B0002C912083E62FEF5FF0E0E55FFE4FDC013A
:1005C000AF70BB27AF59BE4F2C912083E62FEE5F53
:1005D000F0E0E55FFE4FDC01AB2FBB27A295AF70CB
:1005E000AF59BE4F2C912083A62FAD5FB0E0A55F21
:1005F000BE4FE92FFF27EF70FF27EF59FE4F808195
:100600008C93645F6093B3010E944D0281E001C04E
:1006100080E0DF91CF911F910F91FF90EF90DF90DD
:10062000CF90BF9008951F920F920FB60F92112492
:100630002F933F934F935F936F937F938F939F93EA
:10064000AF93BF93EF93FF938091B201882329F07A
:1006500080918401882309F449C080918401882312
:10066000B1F18091B101982F9F5F9093B1018823E0
:1006700009F443C02CC00E9460028091B4019091A3
:10068000B50101969093B5018093B40120C02091EB
:10069000B00181E090E0022E01C0880F0A94EAF7D1
:1006A000F0E0ED5FFE4F608168232F5F2093B00183
:1006B000809100010E94FA038091B001863038F0E9
:1006C0001092B0018091AF018F5F8093AF01809154
:1006D000B101883010F01092B1018091B2018823ED
:1006E000B1F080918401882381F011C080910101D3
:1006F0000E94310480938601B0CFE091AF018091D8
:10070000B301E81708F0B7CFC2CF0E94E300FF9112
:10071000EF91BF91AF919F918F917F916F915F9179
:100720004F913F912F910F900FBE0F901F901895F2
:10073000833069F028F48130A1F0823011F514C0C3
:100740008630B1F08730C1F08430D9F404C0809194
:1007500080008F7703C0809180008F7D8093800020
:10076000089584B58F7702C084B58F7D84BD0895C8
:100770008091B0008F7703C08091B0008F7D80930F
:10078000B0000895CF93DF9390E0FC01E458FF4F51
:100790004491FC01E057FF4F8491882341F190E0A0
:1007A000880F991FFC01E854FF4F25913491D9011E
:1007B00082559F4FFC0185919491C82FD92F9FB7E7
:1007C000F8948C91611106C0409584238C938881A4
:1007D000842308C0623041F4242F209582238C9317
:1007E0008881842B888302C0842B8C939FBFDF91E8
:1007F000CF9108950F931F93CF93DF931F92CDB79F
:10080000DEB7282F30E0F901E859FF4F8491F90154
:10081000E458FF4F1491F901E057FF4F0491002372
:10082000D1F0882321F069830E9498036981E02F29
:10083000F0E0EE0FFF1FE255FF4F85919491DC0130
:100840009FB7F8948C91611103C01095812301C06A
:10085000812B8C939FBF0F90DF91CF911F910F91B0
:100860000895CF93DF93282F30E0F901E859FF4F27
:100870008491F901E458FF4FD491F901E057FF4FFB
:10088000C491CC2389F081110E949803EC2FF0E0F1
:10089000EE0FFF1FEC55FF4F85919491DC018C9179
:1008A0008D2321E030E011F420E030E0C901DF9138
:1008B000CF9108951F920F920FB60F9211242F938C
:1008C0003F938F939F93AF93BF938091B601909185
:1008D000B701A091B801B091B9013091BE01232FA9
:1008E0002D5F2D3720F40196A11DB11D05C0232FCA
:1008F0002A570296A11DB11D2093BE018093B60117
:100900009093B701A093B801B093B9018091BA0157
:100910009091BB01A091BC01B091BD010196A11DB8
:10092000B11D8093BA019093BB01A093BC01B09319
:10093000BD01BF91AF919F918F913F912F910F90EA
:100940000FBE0F901F9018950F931F939FB7F894A9
:100950000091BA011091BB012091BC013091BD0101
:1009600086B5A89B06C08F3F21F00F5F1F4F2F4F0A
:100970003F4F9FBF322F212F102F0027080F111D2F
:10098000211D311D42E0000F111F221F331F4A9508
:10099000D1F7B801C9011F910F910895CF92DF924D
:1009A000EF92FF92CF93DF936B017C010E94A4042E
:1009B000EB010EC00E94A4046C1B7D0B683E7340CB
:1009C00038F081E0C81AD108E108F108C851DC4FBD
:1009D000C114D104E104F10469F7DF91CF91FF90D4
:1009E000EF90DF90CF900895789484B5826084BDB5
:1009F00084B5816084BD85B5826085BD85B5816023
:100A000085BDEEE6F0E0808181608083E1E8F0E082
:100A10001082808182608083808181608083E0E8B1
:100A2000F0E0808181608083E1EBF0E08081846090
:100A30008083E0EBF0E0808181608083EAE7F0E092
:100A400080818460808380818260808380818160F6
:100A500080838081806880831092C1000895CF9246
:100A6000DF92EF92FF920F931F93CF93DF936C016E
:100A7000EB017A01E60EF71E00E010E00BC0699171
:100A8000D601ED91FC910190F081E02DC601099510
:100A9000080F191FCE15DF0591F7C801DF91CF911F
:100AA0001F910F91FF90EF90DF90CF900895DB01A1
:100AB0000D900020E9F7AD0141505109461B570B3D
:100AC000DC01ED91FC910280F381E02D0994DC01C1
:100AD000ED91FC910190F081E02D09940F931F930B
:100AE000CF93DF93EC016DE00E9467058C016AE013
:100AF000CE010E9467059C01200F311FC901DF91C3
:100B0000CF911F910F9108950F931F93CF93DF9370
:100B1000EC010E9457058C01CE010E946E059801E0
:100B2000280F391FC901DF91CF911F910F910895AF
:100B3000FC0184859585FC01E05CFF4F20813181BB
:100B4000FC01EE5BFF4F80819181281B390B2F73D5
:100B50003327C9010895FC0184859585FC01E05C7B
:100B6000FF4F40815181FC01EE5BFF4F20813181BD
:100B70004217530741F00190F081E02DE80FF91F73
:100B8000208130E002C02FEF3FEFC9010895FC0142
:100B900084859585FC01E05CFF4F40815181FC011B
:100BA000EE5BFF4F208131814217530781F0A08116
:100BB000B181A80FB91F8C91208131812F5F3F4FE8
:100BC0002F73332731832083282F30E002C02FEF8B
:100BD0003FEFC9010895FC0186859785FC01E05C23
:100BE000FF4FDC01AE5BBF4F408151812D913C91A5
:100BF000119742175307C1F70895CF93DF93FC0174
:100C000086859785DC01A05CBF4F2D913C911197A3
:100C10002F5F3F4F2F733327EC01CE5BDF4F4881AF
:100C2000598124173507D9F30D90BC91A02DA80F39
:100C3000B91F6C93A685B785A05CBF4F11963C93F6
:100C40002E93A689B7892C9181E090E0058C02C093
:100C5000880F991F0A94E2F7282B2C9381E090E0EB
:100C6000DF91CF91089508951F920F920FB60F92C2
:100C700011242F933F934F938F939F93EF93FF9361
:100C80004091C600809162029091630201968F7339
:100C9000992720916402309165028217930759F0D9
:100CA000E0916202F0916302EE5DFD4F408390930C
:100CB000630280936202FF91EF919F918F914F9118
:100CC0003F912F910F900FBE0F901F9018958FEBB3
:100CD00091E00E949805892B11F00C943306089539
:100CE0001F920F920FB60F9211242F933F938F9361
:100CF0009F93EF93FF9320911E0230911F028091EA
:100D00002002909121022817390731F48091C10007
:100D10008F7D8093C10014C0E0912002F0912102E8
:100D2000E252FE4F20818091200290912102019693
:100D30008F73992790932102809320022093C600FD
:100D4000FF91EF919F918F913F912F910F900FBE47
:100D50000F901F901895CF92DF92EF92FF92CF9352
:100D6000DF93EC016A017B01411581EE58076105B3
:100D70007105F9F0EC89FD8981E090E00E8C02C0EC
:100D8000880F991F0A94E2F7808360E079E08DE391
:100D900090E0A70196010E941209215031094109F2
:100DA00051095695479537952795211580E13807C4
:100DB00098F0EC89FD89108260E874E88EE190E09B
:100DC000A70196010E9412092150310941095109D8
:100DD0005695479537952795E889F9893083EA89AB
:100DE000FB892083EE89FF89408181E090E09C01AE
:100DF0000A8C02C0220F331F0A94E2F7422B408371
:100E0000EE89FF8940819C010B8C02C0220F331FA9
:100E10000A94E2F7422B4083EE89FF8940819C01CE
:100E20000C8C02C0220F331F0A94E2F7422B40833E
:100E3000EE89FF8920810D8C02C0880F991F0A94CA
:100E4000E2F7809582238083DF91CF91FF90EF902E
:100E5000DF90CF9008951092C2011092C10188EEE8
:100E600093E0A0E0B0E08093C3019093C401A0930D
:100E7000C501B093C60185E791E09093C0018093CE
:100E8000BF0182E292E09093CC018093CB018EED82
:100E900091E09093CE018093CD0185EC90E090930A
:100EA000D0018093CF0184EC90E09093D2018093A5
:100EB000D10180EC90E09093D4018093D30181EC38
:100EC00090E09093D6018093D50186EC90E09093CA
:100ED000D8018093D70184E08093D90183E0809387
:100EE000DA0187E08093DB0185E08093DC0181E01B
:100EF0008093DD0108950E94F4040E948C00C7E6EF
:100F0000D6E00E94A1002097E1F30E946706F9CF86
:100F10000CD0EBC0E3D040F0DAD030F021F45F3FEA
:100F200019F0CCC0511115C1CFC0F0D098F399235E
:100F3000C9F35523B1F3951B550BBB27AA2762179D
:100F40007307840738F09F5F5F4F220F331F441FE2
:100F5000AA1FA9F333D00E2E3AF0E0E830D091501A
:100F60005040E695001CCAF729D0FE2F27D0660F07
:100F7000771F881FBB1F261737074807AB07B0E846
:100F800009F0BB0B802DBF01FF2793585F4F2AF05C
:100F90009E3F510568F092C0DCC05F3FECF3983E85
:100FA000DCF3869577956795B795F7959F5FC9F7B9
:100FB000880F911D9695879597F90895E1E0660F42
:100FC000771F881FBB1F621773078407BA0720F0BB
:100FD000621B730B840BBA0BEE1F88F7E095089524
:100FE00004D06894B111B5C0089598D088F09F5787
:100FF00090F0B92F9927B751A0F0D1F0660F771F65
:10100000881F991F1AF0BA95C9F712C0B13081F044
:101010009FD0B1E008959CC0672F782F8827B85FD4
:1010200039F0B93FCCF3869577956795B395D9F7A5
:101030003EF490958095709561957F4F8F4F9F4FAF
:101040000895E89409C097FB3EF4909580957095BB
:1010500061957F4F8F4F9F4F9923A9F0F92F96E904
:10106000BB279395F695879577956795B795F11179
:10107000F8CFFAF4BB0F11F460FF1BC06F5F7F4F16
:101080008F4F9F4F16C0882311F096E911C0772328
:1010900021F09EE8872F762F05C0662371F096E831
:1010A000862F70E060E02AF09A95660F771F881F00
:1010B000DAF7880F9695879597F9089597F99F67BE
:1010C00080E870E060E008959FEF80EC08950024D0
:1010D0000A941616170618060906089500240A949D
:1010E00012161306140605060895092E0394000C23
:1010F00011F4882352F0BB0F40F4BF2B11F460FFB2
:1011000004C06F5F7F4F8F4F9F4F089557FD9058DA
:10111000440F551F59F05F3F71F04795880F97FBBB
:10112000991F61F09F3F79F0879508951216130675
:101130001406551FF2CF4695F1DF08C016161706A4
:101140001806991FF1CF86957105610508940895D9
:10115000E894BB2766277727CB0197F908950BD032
:10116000C4CFB5DF28F0BADF18F0952309F0A6CF79
:10117000ABCF1124EECFCADFA0F3959FD1F3950F2B
:1011800050E0551F629FF001729FBB27F00DB11D0B
:10119000639FAA27F00DB11DAA1F649F6627B00D9B
:1011A000A11D661F829F2227B00DA11D621F739F84
:1011B000B00DA11D621F839FA00D611D221F749F92
:1011C0003327A00D611D231F849F600D211D822FD9
:1011D000762F6A2F11249F5750408AF0E1F0882320
:1011E0004AF0EE0FFF1FBB1F661F771F881F91502D
:1011F0005040A9F79E3F510570F060CFAACF5F3FE6
:10120000ECF3983EDCF3869577956795B795F7955F
:10121000E7959F5FC1F7FE2B880F911D96958795E7
:1012200097F90895A1E21A2EAA1BBB1BFD010DC060
:10123000AA1FBB1FEE1FFF1FA217B307E407F50786
:1012400020F0A21BB30BE40BF50B661F771F881F62
:10125000991F1A9469F760957095809590959B01F8
:10126000AC01BD01CF010895EE0FFF1F0590F49171
:08127000E02D0994F894FFCF72
:101278000C0B0A2A2A2A2A2A2A382C0000000000E5
:101288000000000000000000000000000000000056
:101298000000000000000000000000000000000046
:1012A8000000000000000000000000000000000036
:1012B80000000000000000000001000800400000DD
:1012C800010004050D73657475700068656C6C6FBA
:1012D800000D0E131516191A1C232526292A2C323F
:1012E8003400000000FD052F059805C705AB05EB88
:0212F8000500EF
:00000001FF
