:100000000C9462000C948A000C948A000C948A0070
:100010000C948A000C948A000C948A000C948A0038
:100020000C948A000C948A000C948A000C948A0028
:100030000C948A000C948A000C948A000C948A0018
:100040000C948C010C948A000C9415040C945104AB
:100050000C948A000C948A000C948A000C948A00F8
:100060000C948A000C948A00000000070002010032
:100070000003040600000000000000000102040864
:100080001020408001020408102001020408102002
:10009000040404040404040402020202020203032E
:1000A00003030303000000002300260029000000D2
:1000B0000000250028002B0000000000240027007D
:1000C0002A000C0511241FBECFEFD8E0DEBFCDBF44
:1000D00011E0A0E0B1E0E6E2FBE002C005900D9285
:1000E000A232B107D9F711E0A2E2B1E001C01D923E
:1000F000A43DB107E1F710E0C4ECD0E004C02297C2
:10010000FE010E948D05C23CD107C9F70E945C0523
:100110000C9491050C940000CF93DF93C0E0D1E0E4
:1001200061E088810E94F4006091220188810E9430
:100130002C0140E855E260E070E08DE291E0DF9153
:10014000CF910C948C04809100010E9463019093E4
:10015000230180932201892B11F461E001C060E04A
:10016000809100010E942C0162E071E08DE291E03B
:100170000E94990260912201709123014AE050E0AF
:100180008DE291E00E945F0368EB7BE080E090E00D
:100190000C940002833069F028F48130A1F08230A1
:1001A00011F514C08630B1F08730C1F08430D9F435
:1001B00004C0809180008F7703C0809180008F7D84
:1001C00080938000089584B58F7702C084B58F7DB9
:1001D00084BD08958091B0008F7703C08091B000F6
:1001E0008F7D8093B0000895CF93DF9390E0FC0162
:1001F000E458FF4F4491FC01E057FF4F849188235E
:1002000041F190E0880F991FFC01E854FF4F2591C0
:100210003491D90182559F4FFC0185919491C82F4B
:10022000D92F9FB7F8948C91611106C04095842313
:100230008C938881842308C0623041F4242F209558
:1002400082238C938881842B888302C0842B8C9397
:100250009FBFDF91CF9108950F931F93CF93DF93AB
:100260001F92CDB7DEB7282F30E0F901E859FF4FD4
:100270008491F901E458FF4F1491F901E057FF4FC1
:1002800004910023D1F0882321F069830E94CA00E1
:100290006981E02FF0E0EE0FFF1FE255FF4F8591DF
:1002A0009491DC019FB7F8948C91611103C0109573
:1002B000812301C0812B8C939FBF0F90DF91CF9141
:1002C0001F910F910895CF93DF93282F30E0F9010C
:1002D000E859FF4F8491F901E458FF4FD491F90197
:1002E000E057FF4FC491CC2389F081110E94CA00CE
:1002F000EC2FF0E0EE0FFF1FEC55FF4F859194912E
:10030000DC018C918D2321E030E011F420E030E01D
:10031000C901DF91CF9108951F920F920FB60F92EE
:1003200011242F933F938F939F93AF93BF9380910B
:10033000240190912501A0912601B09127013091CF
:100340002C01232F2D5F2D3720F40196A11DB11D07
:1003500005C0232F2A570296A11DB11D20932C0101
:100360008093240190932501A0932601B093270147
:100370008091280190912901A0912A01B0912B012F
:100380000196A11DB11D8093280190932901A0938E
:100390002A01B0932B01BF91AF919F918F913F9113
:1003A0002F910F900FBE0F901F9018950F931F93D2
:1003B0009FB7F894009128011091290120912A01FA
:1003C00030912B0186B5A89B06C08F3F21F00F5FAF
:1003D0001F4F2F4F3F4F9FBF322F212F102F00272E
:1003E000080F111D211D311D42E0000F111F221F9A
:1003F000331F4A95D1F7B801C9011F910F91089594
:10040000CF92DF92EF92FF92CF93DF936B017C014B
:100410000E94D601EB010EC00E94D6016C1B7D0B21
:10042000683E734038F081E0C81AD108E108F1084D
:10043000C851DC4FC114D104E104F10469F7DF9124
:10044000CF91FF90EF90DF90CF900895789484B58E
:10045000826084BD84B5816084BD85B5826085BDC0
:1004600085B5816085BDEEE6F0E0808181608083A6
:10047000E1E8F0E010828081826080838081816089
:100480008083E0E8F0E0808181608083E1EBF0E050
:10049000808184608083E0EBF0E0808181608083F4
:1004A000EAE7F0E0808184608083808182608083DD
:1004B0008081816080838081806880831092C10008
:1004C0000895CF92DF92EF92FF920F931F93CF93F5
:1004D000DF936C01EB017A01E60EF71E00E010E0FD
:1004E0000BC06991D601ED91FC910190F081E02D56
:1004F000C6010995080F191FCE15DF0591F7C80130
:10050000DF91CF911F910F91FF90EF90DF90CF90EF
:100510000895DB010D900020E9F7AD01415051092C
:10052000461B570BDC01ED91FC910280F381E02D1D
:1005300009940C948902DC01ED91FC910190F08109
:10054000E02D09940F931F93CF93DF93EC016DE09F
:100550000E949B028C016AE0CE010E949B029C01DA
:10056000200F311FC901DF91CF911F910F91089585
:100570004F925F926F927F929F92AF92BF92CF9273
:10058000DF92EF92FF920F931F93CF93DF93CDB73C
:10059000DEB7A1970FB6F894DEBF0FBECDBF5C01EA
:1005A0006A017B01922E19A281E0821710F08AE085
:1005B000982E8E010F5D1F4F492C512C612C712CF0
:1005C000C701B601A30192010E9469058C2D929E7C
:1005D00080191124015011098A3014F4805D01C082
:1005E000895CF801808369017A01C114D104E104B6
:1005F000F10431F7B801C5010E948902A1960FB636
:10060000F894DEBF0FBECDBFDF91CF911F910F9148
:10061000FF90EF90DF90CF90BF90AF909F907F9032
:100620006F905F904F900895CF92DF92EF92FF927C
:100630000F931F93CF93DF93EC016A017B01211588
:10064000310579F4E881F9810190F081E02D642F82
:10065000DF91CF911F910F91FF90EF90DF90CF909E
:1006600009942A30310519F477FD0EC02AE0B7014C
:10067000A601CE01DF91CF911F910F91FF90EF90D6
:10068000DF90CF900C94B8026DE20E949B028C0127
:1006900044275527BA014C195D096E097F092AE0E4
:1006A000CE010E94B802080F191FC801DF91CF9137
:1006B0001F910F91FF90EF90DF90CF9008950F93CF
:1006C0001F93CF93DF93EC019A01AB01662757FD8F
:1006D0006095762F0E9414038C01CE010E94A20225
:1006E0009801280F391FC901DF91CF911F910F91F8
:1006F0000895FC0184859585FC01E05CFF4F208115
:100700003181FC01EE5BFF4F80819181281B390B09
:100710002F733327C9010895FC0184859585FC0159
:10072000E05CFF4F40815181FC01EE5BFF4F208177
:1007300031814217530741F00190F081E02DE80F1D
:10074000F91F208130E002C02FEF3FEFC90108956B
:10075000FC0184859585FC01E05CFF4F408151815F
:10076000FC01EE5BFF4F208131814217530781F07E
:10077000A081B181A80FB91F8C91208131812F5F99
:100780003F4F2F73332731832083282F30E002C05F
:100790002FEF3FEFC9010895FC0186859785FC0185
:1007A000E05CFF4FDC01AE5BBF4F408151812D917A
:1007B0003C91119742175307C1F70895CF93DF93E8
:1007C000FC0186859785DC01A05CBF4F2D913C9193
:1007D00011972F5F3F4F2F733327EC01CE5BDF4F15
:1007E0004881598124173507D9F30D90BC91A02D6C
:1007F000A80FB91F6C93A685B785A05CBF4F119653
:100800003C932E93A689B7892C9181E090E0058CCA
:1008100002C0880F991F0A94E2F7282B2C9381E0DD
:1008200090E0DF91CF91089508951F920F920FB637
:100830000F9211242F933F934F938F939F93EF9396
:10084000FF934091C6008091D0019091D101019613
:100850008F7399272091D2013091D301821793078A
:1008600059F0E091D001F091D101E057FE4F408363
:100870009093D1018093D001FF91EF919F918F913F
:100880004F913F912F910F900FBE0F901F90189591
:100890008DE291E00E947903892B11F00C941404ED
:1008A00008951F920F920FB60F9211242F933F932A
:1008B0008F939F93EF93FF9320918C0130918D0143
:1008C00080918E0190918F012817390731F4809122
:1008D000C1008F7D8093C10014C0E0918E01F09122
:1008E0008F01E45BFE4F208180918E0190918F01FA
:1008F00001968F73992790938F0180938E01209397
:10090000C600FF91EF919F918F913F912F910F9092
:100910000FBE0F901F901895CF92DF92EF92FF922B
:10092000CF93DF93EC016A017B01411581EE5807FB
:1009300061057105F9F0EC89FD8981E090E00E8C8C
:1009400002C0880F991F0A94E2F7808360E079E083
:100950008DE390E0A70196010E94690521503109BD
:10096000410951095695479537952795211580E1FD
:10097000380798F0EC89FD89108260E874E88EE110
:1009800090E0A70196010E946905215031094109B3
:1009900051095695479537952795E889F989308308
:1009A000EA89FB892083EE89FF89408181E090E01C
:1009B0009C010A8C02C0220F331F0A94E2F7422BDB
:1009C0004083EE89FF8940819C010B8C02C0220F7D
:1009D000331F0A94E2F7422B4083EE89FF8940815E
:1009E0009C010C8C02C0220F331F0A94E2F7422BA9
:1009F0004083EE89FF8920810D8C02C0880F991FEA
:100A00000A94E2F7809582238083DF91CF91FF9053
:100A1000EF90DF90CF9008951092300110922F0147
:100A200088EE93E0A0E0B0E0809331019093320132
:100A3000A0933301B093340185E191E090932E01AE
:100A400080932D0180E991E090933A0180933901E0
:100A50008CE491E090933C0180933B0185EC90E025
:100A600090933E0180933D0184EC90E0909340018F
:100A700080933F0180EC90E090934201809341018C
:100A800081EC90E0909344018093430186EC90E0E8
:100A9000909346018093450184E08093470183E071
:100AA0008093480187E08093490185E080934A0163
:100AB00081E080934B0108950E9426020E948C00E1
:100AC000C8E4D4E00E94A3002097E1F30E94480408
:100AD000F9CFA1E21A2EAA1BBB1BFD010DC0AA1F54
:100AE000BB1FEE1FFF1FA217B307E407F50720F097
:100AF000A21BB30BE40BF50B661F771F881F991F12
:100B00001A9469F760957095809590959B01AC015A
:100B1000BD01CF010895EE0FFF1F0590F491E02D68
:060B20000994F894FFCFD8
:100B26000D0020204C4544205354415455533A203F
:100B36000000000000DE0361027903A8038C03CCE9
:020B46000300AA
:00000001FF
